BL51 BANKED LINKER/LOCATER V5.03                                                        03/14/2013  21:36:13  PAGE 1


BL51 BANKED LINKER/LOCATER V5.03, INVOKED BY:
C:\KEIL\C51\BIN\BL51.EXE ByteCode.obj, HL1606.obj, LedMode.obj, main.obj TO LedControler RAMSIZE (256)


MEMORY MODEL: SMALL


INPUT MODULES INCLUDED:
  ByteCode.obj (BYTECODE)
  HL1606.obj (HL1606)
  LedMode.obj (LEDMODE)
  main.obj (MAIN)
  C:\KEIL\C51\LIB\C51S.LIB (?C_STARTUP)
  C:\KEIL\C51\LIB\C51S.LIB (?C?CLDPTR)
  C:\KEIL\C51\LIB\C51S.LIB (?C?CLDOPTR)
  C:\KEIL\C51\LIB\C51S.LIB (?C?CSTPTR)
  C:\KEIL\C51\LIB\C51S.LIB (?C?CSTOPTR)
  C:\KEIL\C51\LIB\C51S.LIB (?C?UIDIV)
  C:\KEIL\C51\LIB\C51S.LIB (?C?IILDPTR)
  C:\KEIL\C51\LIB\C51S.LIB (?C?IILDOPTR)
  C:\KEIL\C51\LIB\C51S.LIB (?C?ISTPTR)
  C:\KEIL\C51\LIB\C51S.LIB (?C?ISTOPTR)
  C:\KEIL\C51\LIB\C51S.LIB (?C?ULCMP)
  C:\KEIL\C51\LIB\C51S.LIB (?C_INIT)
  C:\KEIL\C51\LIB\C51S.LIB (?C?IILDX)


LINK MAP OF MODULE:  LedControler (BYTECODE)


            TYPE    BASE      LENGTH    RELOCATION   SEGMENT NAME
            -----------------------------------------------------

            * * * * * * *   D A T A   M E M O R Y   * * * * * * *
            REG     0000H     0008H     ABSOLUTE     "REG BANK 0"
            DATA    0008H     0013H     UNIT         _DATA_GROUP_
            DATA    001BH     0005H     UNIT         ?DT?MAIN
            BIT     0020H.0   0001H.0   UNIT         ?BI?LEDMODE
            BIT     0021H.0   0000H.2   UNIT         ?BI?MAIN
                    0021H.2   0000H.6                *** GAP ***
            IDATA   0022H     0044H     UNIT         ?ID?HL1606
            IDATA   0066H     0001H     UNIT         ?STACK

            * * * * * * *  X D A T A   M E M O R Y  * * * * * * *
            XDATA   0000H     0074H     UNIT         ?XD?LEDMODE
            XDATA   0074H     000CH     UNIT         ?XD?HL1606
                    0080H     0080H                  *** GAP ***
            XDATA   0100H     0020H     ABSOLUTE     
            XDATA   0120H     0020H     ABSOLUTE     
            XDATA   0140H     0020H     ABSOLUTE     
            XDATA   0160H     0020H     ABSOLUTE     

            * * * * * * *   C O D E   M E M O R Y   * * * * * * *
            CODE    0000H     0003H     ABSOLUTE     
            CODE    0003H     0007H     UNIT         ?PR?_SPEEDTODELAY?BYTECODE
                    000AH     0001H                  *** GAP ***
            CODE    000BH     0003H     ABSOLUTE     
            CODE    000EH     0014H     UNIT         ?PR?_GETMODE4SPEED?BYTECODE
BL51 BANKED LINKER/LOCATER V5.03                                                      03/14/2013  21:36:13  PAGE 2


                    0022H     0001H                  *** GAP ***
            CODE    0023H     0003H     ABSOLUTE     
            CODE    0026H     0010H     UNIT         ?PR?INITUART?MAIN
                    0036H     0005H                  *** GAP ***
            CODE    003BH     0003H     ABSOLUTE     
            CODE    003EH     0223H     UNIT         ?PR?LED1_MODE2?LEDMODE
            CODE    0261H     0223H     UNIT         ?PR?LED2_MODE2?LEDMODE
            CODE    0484H     0223H     UNIT         ?PR?LED3_MODE2?LEDMODE
            CODE    06A7H     0223H     UNIT         ?PR?LED4_MODE2?LEDMODE
            CODE    08CAH     0200H     UNIT         ?PR?_GETPARAMOFMODE6?BYTECODE
            CODE    0ACAH     01C7H     UNIT         ?C?LIB_CODE
            CODE    0C91H     0187H     UNIT         ?PR?_GETBYTECODE?BYTECODE
            CODE    0E18H     015BH     UNIT         ?PR?_GETPARAMOFMODE5?BYTECODE
            CODE    0F73H     013AH     UNIT         ?PR?_GETPARAMOFMODE4?BYTECODE
            CODE    10ADH     012AH     UNIT         ?PR?_GETPARAMOFMODE3?BYTECODE
            CODE    11D7H     00F5H     UNIT         ?PR?LED_RUN?LEDMODE
            CODE    12CCH     00BDH     UNIT         ?PR?LED_INIT?LEDMODE
            CODE    1389H     00B0H     UNIT         ?PR?_GETPARAMOFMODE8?BYTECODE
            CODE    1439H     00A5H     UNIT         ?PR?UART_SER?MAIN
            CODE    14DEH     008FH     UNIT         ?PR?LED1_RUN?LEDMODE
            CODE    156DH     008FH     UNIT         ?PR?LED2_RUN?LEDMODE
            CODE    15FCH     008FH     UNIT         ?PR?LED3_RUN?LEDMODE
            CODE    168BH     008FH     UNIT         ?PR?LED4_RUN?LEDMODE
            CODE    171AH     008CH     UNIT         ?C_C51STARTUP
            CODE    17A6H     0088H     UNIT         ?PR?LED1_MODE4?LEDMODE
            CODE    182EH     0088H     UNIT         ?PR?LED2_MODE4?LEDMODE
            CODE    18B6H     0088H     UNIT         ?PR?LED3_MODE4?LEDMODE
            CODE    193EH     0088H     UNIT         ?PR?LED4_MODE4?LEDMODE
            CODE    19C6H     0064H     UNIT         ?PR?_GETPARAMOFMODE7?BYTECODE
            CODE    1A2AH     0057H     UNIT         ?PR?MAIN?MAIN
            CODE    1A81H     0056H     UNIT         ?PR?_GETCODECOUNT?BYTECODE
            CODE    1AD7H     0054H     UNIT         ?PR?_FREQTOSPEED?BYTECODE
            CODE    1B2BH     0054H     UNIT         ?PR?LED1_MODE3?LEDMODE
            CODE    1B7FH     0054H     UNIT         ?PR?LED2_MODE3?LEDMODE
            CODE    1BD3H     0054H     UNIT         ?PR?LED3_MODE3?LEDMODE
            CODE    1C27H     0054H     UNIT         ?PR?LED4_MODE3?LEDMODE
            CODE    1C7BH     004CH     UNIT         ?PR?_GETPARAMOFMODE1?BYTECODE
            CODE    1CC7H     004CH     UNIT         ?PR?HL1606_LED1_4_2?HL1606
            CODE    1D13H     004CH     UNIT         ?PR?HL1606_LED2_4_2?HL1606
            CODE    1D5FH     004CH     UNIT         ?PR?HL1606_LED3_4_2?HL1606
            CODE    1DABH     004CH     UNIT         ?PR?HL1606_LED4_4_2?HL1606
            CODE    1DF7H     0048H     UNIT         ?PR?_GETPARAMOFMODE2?BYTECODE
            CODE    1E3FH     0048H     UNIT         ?PR?LED_1MSPROC?LEDMODE
            CODE    1E87H     0046H     UNIT         ?PR?HL1606_LED1_4_5?HL1606
            CODE    1ECDH     0046H     UNIT         ?PR?HL1606_LED2_4_5?HL1606
            CODE    1F13H     0046H     UNIT         ?PR?HL1606_LED3_4_5?HL1606
            CODE    1F59H     0046H     UNIT         ?PR?HL1606_LED4_4_5?HL1606
            CODE    1F9FH     0044H     UNIT         ?PR?HL1606_LED1_3_2?HL1606
            CODE    1FE3H     0044H     UNIT         ?PR?HL1606_LED2_3_2?HL1606
            CODE    2027H     0044H     UNIT         ?PR?HL1606_LED3_3_2?HL1606
            CODE    206BH     0044H     UNIT         ?PR?HL1606_LED4_3_2?HL1606
            CODE    20AFH     0044H     UNIT         ?PR?_HL1606_LED1_4_1?HL1606
            CODE    20F3H     0044H     UNIT         ?PR?_HL1606_LED2_4_1?HL1606
            CODE    2137H     0044H     UNIT         ?PR?_HL1606_LED3_4_1?HL1606
            CODE    217BH     0044H     UNIT         ?PR?_HL1606_LED4_4_1?HL1606
            CODE    21BFH     0041H     UNIT         ?PR?HL1606_LED1_4_4?HL1606
            CODE    2200H     0041H     UNIT         ?PR?HL1606_LED2_4_4?HL1606
BL51 BANKED LINKER/LOCATER V5.03                                                      03/14/2013  21:36:13  PAGE 3


            CODE    2241H     0041H     UNIT         ?PR?HL1606_LED3_4_4?HL1606
            CODE    2282H     0041H     UNIT         ?PR?HL1606_LED4_4_4?HL1606
            CODE    22C3H     003BH     UNIT         ?C_INITSEG
            CODE    22FEH     0038H     UNIT         ?PR?_HL1606_LED1_3_1?HL1606
            CODE    2336H     0038H     UNIT         ?PR?_HL1606_LED2_3_1?HL1606
            CODE    236EH     0038H     UNIT         ?PR?_HL1606_LED3_3_1?HL1606
            CODE    23A6H     0038H     UNIT         ?PR?_HL1606_LED4_3_1?HL1606
            CODE    23DEH     0032H     UNIT         ?PR?_COLORTOLIGHT?BYTECODE
            CODE    2410H     0031H     UNIT         ?CO?BYTECODE
            CODE    2441H     0031H     UNIT         ?PR?_HL1606_LED1_1?HL1606
            CODE    2472H     0031H     UNIT         ?PR?_HL1606_LED2_1?HL1606
            CODE    24A3H     0031H     UNIT         ?PR?_HL1606_LED3_1?HL1606
            CODE    24D4H     0031H     UNIT         ?PR?_HL1606_LED4_1?HL1606
            CODE    2505H     002FH     UNIT         ?PR?_COLORTODIM?BYTECODE
            CODE    2534H     0027H     UNIT         ?PR?LED1_INITMODE?LEDMODE
            CODE    255BH     0027H     UNIT         ?PR?LED2_INITMODE?LEDMODE
            CODE    2582H     0027H     UNIT         ?PR?LED3_INITMODE?LEDMODE
            CODE    25A9H     0027H     UNIT         ?PR?LED4_INITMODE?LEDMODE
            CODE    25D0H     0024H     UNIT         ?PR?_HL1606_TBXH1?HL1606
            CODE    25F4H     0024H     UNIT         ?PR?_HL1606_TBXH2?HL1606
            CODE    2618H     0024H     UNIT         ?PR?_HL1606_TBXH3?HL1606
            CODE    263CH     0024H     UNIT         ?PR?_HL1606_TBXH4?HL1606
            CODE    2660H     0021H     UNIT         ?PR?HL1606_LED1_4_3?HL1606
            CODE    2681H     0021H     UNIT         ?PR?HL1606_LED1_4_6?HL1606
            CODE    26A2H     0021H     UNIT         ?PR?HL1606_LED2_4_3?HL1606
            CODE    26C3H     0021H     UNIT         ?PR?HL1606_LED2_4_6?HL1606
            CODE    26E4H     0021H     UNIT         ?PR?HL1606_LED3_4_3?HL1606
            CODE    2705H     0021H     UNIT         ?PR?HL1606_LED3_4_6?HL1606
            CODE    2726H     0021H     UNIT         ?PR?HL1606_LED4_4_3?HL1606
            CODE    2747H     0021H     UNIT         ?PR?HL1606_LED4_4_6?HL1606
            CODE    2768H     001DH     UNIT         ?PR?_HL1606_SEND81?HL1606
            CODE    2785H     001DH     UNIT         ?PR?_HL1606_SEND82?HL1606
            CODE    27A2H     001DH     UNIT         ?PR?_HL1606_SEND83?HL1606
            CODE    27BFH     001DH     UNIT         ?PR?_HL1606_SEND84?HL1606
            CODE    27DCH     001CH     UNIT         ?PR?_HL1606_LED1_2?HL1606
            CODE    27F8H     001CH     UNIT         ?PR?_HL1606_LED2_2?HL1606
            CODE    2814H     001CH     UNIT         ?PR?_HL1606_LED3_2?HL1606
            CODE    2830H     001CH     UNIT         ?PR?_HL1606_LED4_2?HL1606
            CODE    284CH     001BH     UNIT         ?PR?_MDELAY?HL1606
            CODE    2867H     000EH     UNIT         ?PR?HL1606_LED1_3_ISEND?HL1606
            CODE    2875H     000EH     UNIT         ?PR?HL1606_LED2_3_ISEND?HL1606
            CODE    2883H     000EH     UNIT         ?PR?HL1606_LED3_3_ISEND?HL1606
            CODE    2891H     000EH     UNIT         ?PR?HL1606_LED4_3_ISEND?HL1606
            CODE    289FH     000EH     UNIT         ?PR?LED1_MODE1?LEDMODE
            CODE    28ADH     000EH     UNIT         ?PR?INIT_TIMER0?MAIN
            CODE    28BBH     000CH     UNIT         ?PR?HL1606_LED1_4_ISEND?HL1606
            CODE    28C7H     000CH     UNIT         ?PR?HL1606_LED2_4_ISEND?HL1606
            CODE    28D3H     000CH     UNIT         ?PR?HL1606_LED3_4_ISEND?HL1606
            CODE    28DFH     000CH     UNIT         ?PR?HL1606_LED4_4_ISEND?HL1606
            CODE    28EBH     000BH     UNIT         ?PR?LED2_MODE1?LEDMODE
            CODE    28F6H     000BH     UNIT         ?PR?LED3_MODE1?LEDMODE
            CODE    2901H     000BH     UNIT         ?PR?LED4_MODE1?LEDMODE
            CODE    290CH     0009H     UNIT         ?PR?TIMER0_ISR?MAIN



OVERLAY MAP OF MODULE:   LedControler (BYTECODE)
BL51 BANKED LINKER/LOCATER V5.03                                                      03/14/2013  21:36:13  PAGE 4




SEGMENT                                  DATA_GROUP 
  +--> CALLED SEGMENT                  START    LENGTH
------------------------------------------------------
?C_C51STARTUP                          -----    -----
  +--> ?PR?MAIN?MAIN
  +--> ?C_INITSEG

?PR?MAIN?MAIN                          -----    -----
  +--> ?PR?INITUART?MAIN
  +--> ?PR?_HL1606_LED1_1?HL1606
  +--> ?PR?_HL1606_LED2_1?HL1606
  +--> ?PR?_HL1606_LED3_1?HL1606
  +--> ?PR?_HL1606_LED4_1?HL1606
  +--> ?PR?INIT_TIMER0?MAIN
  +--> ?PR?LED_INIT?LEDMODE
  +--> ?PR?LED_RUN?LEDMODE
  +--> ?PR?LED_1MSPROC?LEDMODE

?PR?_HL1606_LED1_1?HL1606              -----    -----
  +--> ?PR?_HL1606_SEND81?HL1606
  +--> ?PR?_HL1606_TBXH1?HL1606

?PR?_HL1606_TBXH1?HL1606               0011H    0002H
  +--> ?PR?_MDELAY?HL1606

?PR?_HL1606_LED2_1?HL1606              -----    -----
  +--> ?PR?_HL1606_SEND82?HL1606
  +--> ?PR?_HL1606_TBXH2?HL1606

?PR?_HL1606_TBXH2?HL1606               0011H    0002H
  +--> ?PR?_MDELAY?HL1606

?PR?_HL1606_LED3_1?HL1606              -----    -----
  +--> ?PR?_HL1606_SEND83?HL1606
  +--> ?PR?_HL1606_TBXH3?HL1606

?PR?_HL1606_TBXH3?HL1606               0011H    0002H
  +--> ?PR?_MDELAY?HL1606

?PR?_HL1606_LED4_1?HL1606              -----    -----
  +--> ?PR?_HL1606_SEND84?HL1606
  +--> ?PR?_HL1606_TBXH4?HL1606

?PR?_HL1606_TBXH4?HL1606               0011H    0002H
  +--> ?PR?_MDELAY?HL1606

?PR?LED_INIT?LEDMODE                   -----    -----
  +--> ?PR?_GETCODECOUNT?BYTECODE
  +--> ?PR?_GETBYTECODE?BYTECODE
  +--> ?PR?LED1_INITMODE?LEDMODE
  +--> ?PR?LED2_INITMODE?LEDMODE
  +--> ?PR?LED3_INITMODE?LEDMODE
  +--> ?PR?LED4_INITMODE?LEDMODE

?PR?_GETCODECOUNT?BYTECODE             0008H    0005H
BL51 BANKED LINKER/LOCATER V5.03                                                      03/14/2013  21:36:13  PAGE 5


  +--> ?CO?BYTECODE

?PR?_GETBYTECODE?BYTECODE              0009H    000CH
  +--> ?CO?BYTECODE
  +--> ?PR?_GETPARAMOFMODE1?BYTECODE
  +--> ?PR?_GETPARAMOFMODE2?BYTECODE
  +--> ?PR?_GETPARAMOFMODE3?BYTECODE
  +--> ?PR?_GETPARAMOFMODE4?BYTECODE
  +--> ?PR?_GETPARAMOFMODE5?BYTECODE
  +--> ?PR?_GETPARAMOFMODE6?BYTECODE
  +--> ?PR?_GETPARAMOFMODE7?BYTECODE
  +--> ?PR?_GETPARAMOFMODE8?BYTECODE

?PR?_GETPARAMOFMODE1?BYTECODE          0015H    0006H

?PR?_GETPARAMOFMODE2?BYTECODE          0015H    0006H

?PR?_GETPARAMOFMODE3?BYTECODE          0015H    0006H

?PR?_GETPARAMOFMODE4?BYTECODE          0015H    0006H

?PR?_GETPARAMOFMODE5?BYTECODE          0015H    0006H

?PR?_GETPARAMOFMODE6?BYTECODE          0015H    0006H

?PR?_GETPARAMOFMODE7?BYTECODE          0015H    0006H

?PR?_GETPARAMOFMODE8?BYTECODE          0015H    0006H

?PR?LED_RUN?LEDMODE                    0008H    0001H
  +--> ?PR?LED1_RUN?LEDMODE
  +--> ?PR?_GETBYTECODE?BYTECODE
  +--> ?PR?LED1_INITMODE?LEDMODE
  +--> ?PR?LED2_RUN?LEDMODE
  +--> ?PR?LED2_INITMODE?LEDMODE
  +--> ?PR?LED3_RUN?LEDMODE
  +--> ?PR?LED3_INITMODE?LEDMODE
  +--> ?PR?LED4_RUN?LEDMODE
  +--> ?PR?LED4_INITMODE?LEDMODE

?PR?LED1_RUN?LEDMODE                   0009H    0004H
  +--> ?PR?LED1_MODE1?LEDMODE
  +--> ?PR?LED1_MODE2?LEDMODE
  +--> ?PR?LED1_MODE3?LEDMODE
  +--> ?PR?LED1_MODE4?LEDMODE

?PR?LED1_MODE1?LEDMODE                 -----    -----
  +--> ?PR?_HL1606_LED1_1?HL1606

?PR?LED1_MODE2?LEDMODE                 000DH    0004H
  +--> ?PR?_SPEEDTODELAY?BYTECODE
  +--> ?PR?_HL1606_LED1_2?HL1606

?PR?_SPEEDTODELAY?BYTECODE             -----    -----
  +--> ?CO?BYTECODE

?PR?_HL1606_LED1_2?HL1606              -----    -----
BL51 BANKED LINKER/LOCATER V5.03                                                      03/14/2013  21:36:13  PAGE 6


  +--> ?PR?_HL1606_SEND81?HL1606
  +--> ?PR?_HL1606_TBXH1?HL1606

?PR?LED1_MODE3?LEDMODE                 000DH    0002H
  +--> ?PR?HL1606_LED1_3_ISEND?HL1606
  +--> ?PR?_COLORTOLIGHT?BYTECODE
  +--> ?PR?_FREQTOSPEED?BYTECODE
  +--> ?PR?_HL1606_LED1_3_1?HL1606
  +--> ?PR?_COLORTODIM?BYTECODE

?PR?_HL1606_LED1_3_1?HL1606            -----    -----
  +--> ?PR?_HL1606_SEND81?HL1606

?PR?LED1_MODE4?LEDMODE                 000DH    0003H
  +--> ?PR?_SPEEDTODELAY?BYTECODE
  +--> ?PR?HL1606_LED1_4_ISEND?HL1606
  +--> ?PR?_COLORTODIM?BYTECODE
  +--> ?PR?_GETMODE4SPEED?BYTECODE
  +--> ?PR?_HL1606_LED1_4_1?HL1606

?PR?_GETMODE4SPEED?BYTECODE            -----    -----
  +--> ?CO?BYTECODE

?PR?_HL1606_LED1_4_1?HL1606            0010H    0004H
  +--> ?PR?_HL1606_SEND81?HL1606

?PR?LED2_RUN?LEDMODE                   0009H    0004H
  +--> ?PR?LED2_MODE1?LEDMODE
  +--> ?PR?LED2_MODE2?LEDMODE
  +--> ?PR?LED2_MODE3?LEDMODE
  +--> ?PR?LED2_MODE4?LEDMODE

?PR?LED2_MODE1?LEDMODE                 -----    -----
  +--> ?PR?_HL1606_LED2_1?HL1606

?PR?LED2_MODE2?LEDMODE                 000DH    0004H
  +--> ?PR?_SPEEDTODELAY?BYTECODE
  +--> ?PR?_HL1606_LED2_2?HL1606

?PR?_HL1606_LED2_2?HL1606              -----    -----
  +--> ?PR?_HL1606_SEND82?HL1606
  +--> ?PR?_HL1606_TBXH2?HL1606

?PR?LED2_MODE3?LEDMODE                 000DH    0002H
  +--> ?PR?HL1606_LED2_3_ISEND?HL1606
  +--> ?PR?_COLORTOLIGHT?BYTECODE
  +--> ?PR?_FREQTOSPEED?BYTECODE
  +--> ?PR?_HL1606_LED2_3_1?HL1606
  +--> ?PR?_COLORTODIM?BYTECODE

?PR?_HL1606_LED2_3_1?HL1606            -----    -----
  +--> ?PR?_HL1606_SEND82?HL1606

?PR?LED2_MODE4?LEDMODE                 000DH    0003H
  +--> ?PR?_SPEEDTODELAY?BYTECODE
  +--> ?PR?HL1606_LED2_4_ISEND?HL1606
  +--> ?PR?_COLORTODIM?BYTECODE
BL51 BANKED LINKER/LOCATER V5.03                                                      03/14/2013  21:36:13  PAGE 7


  +--> ?PR?_GETMODE4SPEED?BYTECODE
  +--> ?PR?_HL1606_LED2_4_1?HL1606

?PR?_HL1606_LED2_4_1?HL1606            0010H    0004H
  +--> ?PR?_HL1606_SEND82?HL1606

?PR?LED3_RUN?LEDMODE                   0009H    0004H
  +--> ?PR?LED3_MODE1?LEDMODE
  +--> ?PR?LED3_MODE2?LEDMODE
  +--> ?PR?LED3_MODE3?LEDMODE
  +--> ?PR?LED3_MODE4?LEDMODE

?PR?LED3_MODE1?LEDMODE                 -----    -----
  +--> ?PR?_HL1606_LED3_1?HL1606

?PR?LED3_MODE2?LEDMODE                 000DH    0004H
  +--> ?PR?_SPEEDTODELAY?BYTECODE
  +--> ?PR?_HL1606_LED3_2?HL1606

?PR?_HL1606_LED3_2?HL1606              -----    -----
  +--> ?PR?_HL1606_SEND83?HL1606
  +--> ?PR?_HL1606_TBXH3?HL1606

?PR?LED3_MODE3?LEDMODE                 000DH    0002H
  +--> ?PR?HL1606_LED3_3_ISEND?HL1606
  +--> ?PR?_COLORTOLIGHT?BYTECODE
  +--> ?PR?_FREQTOSPEED?BYTECODE
  +--> ?PR?_HL1606_LED3_3_1?HL1606
  +--> ?PR?_COLORTODIM?BYTECODE

?PR?_HL1606_LED3_3_1?HL1606            -----    -----
  +--> ?PR?_HL1606_SEND83?HL1606

?PR?LED3_MODE4?LEDMODE                 000DH    0003H
  +--> ?PR?_SPEEDTODELAY?BYTECODE
  +--> ?PR?HL1606_LED3_4_ISEND?HL1606
  +--> ?PR?_COLORTODIM?BYTECODE
  +--> ?PR?_GETMODE4SPEED?BYTECODE
  +--> ?PR?_HL1606_LED3_4_1?HL1606

?PR?_HL1606_LED3_4_1?HL1606            0010H    0004H
  +--> ?PR?_HL1606_SEND83?HL1606

?PR?LED4_RUN?LEDMODE                   0009H    0004H
  +--> ?PR?LED4_MODE1?LEDMODE
  +--> ?PR?LED4_MODE2?LEDMODE
  +--> ?PR?LED4_MODE3?LEDMODE
  +--> ?PR?LED4_MODE4?LEDMODE

?PR?LED4_MODE1?LEDMODE                 -----    -----
  +--> ?PR?_HL1606_LED4_1?HL1606

?PR?LED4_MODE2?LEDMODE                 000DH    0004H
  +--> ?PR?_SPEEDTODELAY?BYTECODE
  +--> ?PR?_HL1606_LED4_2?HL1606

?PR?_HL1606_LED4_2?HL1606              -----    -----
BL51 BANKED LINKER/LOCATER V5.03                                                      03/14/2013  21:36:13  PAGE 8


  +--> ?PR?_HL1606_SEND84?HL1606
  +--> ?PR?_HL1606_TBXH4?HL1606

?PR?LED4_MODE3?LEDMODE                 000DH    0002H
  +--> ?PR?HL1606_LED4_3_ISEND?HL1606
  +--> ?PR?_COLORTOLIGHT?BYTECODE
  +--> ?PR?_FREQTOSPEED?BYTECODE
  +--> ?PR?_HL1606_LED4_3_1?HL1606
  +--> ?PR?_COLORTODIM?BYTECODE

?PR?_HL1606_LED4_3_1?HL1606            -----    -----
  +--> ?PR?_HL1606_SEND84?HL1606

?PR?LED4_MODE4?LEDMODE                 000DH    0003H
  +--> ?PR?_SPEEDTODELAY?BYTECODE
  +--> ?PR?HL1606_LED4_4_ISEND?HL1606
  +--> ?PR?_COLORTODIM?BYTECODE
  +--> ?PR?_GETMODE4SPEED?BYTECODE
  +--> ?PR?_HL1606_LED4_4_1?HL1606

?PR?_HL1606_LED4_4_1?HL1606            0010H    0004H
  +--> ?PR?_HL1606_SEND84?HL1606

?PR?LED_1MSPROC?LEDMODE                -----    -----
  +--> ?PR?HL1606_LED1_3_2?HL1606
  +--> ?PR?HL1606_LED2_3_2?HL1606
  +--> ?PR?HL1606_LED3_3_2?HL1606
  +--> ?PR?HL1606_LED4_3_2?HL1606
  +--> ?PR?HL1606_LED1_4_2?HL1606
  +--> ?PR?HL1606_LED1_4_3?HL1606
  +--> ?PR?HL1606_LED1_4_4?HL1606
  +--> ?PR?HL1606_LED1_4_5?HL1606
  +--> ?PR?HL1606_LED1_4_6?HL1606
  +--> ?PR?HL1606_LED2_4_2?HL1606
  +--> ?PR?HL1606_LED2_4_3?HL1606
  +--> ?PR?HL1606_LED2_4_4?HL1606
  +--> ?PR?HL1606_LED2_4_5?HL1606
  +--> ?PR?HL1606_LED2_4_6?HL1606
  +--> ?PR?HL1606_LED3_4_2?HL1606
  +--> ?PR?HL1606_LED3_4_3?HL1606
  +--> ?PR?HL1606_LED3_4_4?HL1606
  +--> ?PR?HL1606_LED3_4_5?HL1606
  +--> ?PR?HL1606_LED3_4_6?HL1606
  +--> ?PR?HL1606_LED4_4_2?HL1606
  +--> ?PR?HL1606_LED4_4_3?HL1606
  +--> ?PR?HL1606_LED4_4_4?HL1606
  +--> ?PR?HL1606_LED4_4_5?HL1606
  +--> ?PR?HL1606_LED4_4_6?HL1606

?PR?HL1606_LED1_4_4?HL1606             -----    -----
  +--> ?PR?_HL1606_SEND81?HL1606

?PR?HL1606_LED2_4_4?HL1606             -----    -----
  +--> ?PR?_HL1606_SEND82?HL1606

?PR?HL1606_LED3_4_4?HL1606             -----    -----
  +--> ?PR?_HL1606_SEND83?HL1606
BL51 BANKED LINKER/LOCATER V5.03                                                      03/14/2013  21:36:13  PAGE 9



?PR?HL1606_LED4_4_4?HL1606             -----    -----
  +--> ?PR?_HL1606_SEND84?HL1606



SYMBOL TABLE OF MODULE:  LedControler (BYTECODE)

  VALUE           TYPE          NAME
  ----------------------------------

  -------         MODULE        BYTECODE
  C:0000H         SYMBOL        _ICE_DUMMY_
  D:0090H         PUBLIC        P1
  D:00B0H         PUBLIC        P3
  C:0003H         PUBLIC        _SpeedToDelay
  C:1A81H         PUBLIC        _GetCodeCount
  D:00A8H         PUBLIC        IE
  C:0C91H         PUBLIC        _GetByteCode
  D:00B8H         PUBLIC        IP
  C:23DEH         PUBLIC        _ColorToLight
  C:1AD7H         PUBLIC        _FreqToSpeed
  C:000EH         PUBLIC        _GetMode4Speed
  D:0098H         PUBLIC        SCON
  D:0088H         PUBLIC        TCON
  C:2410H         SYMBOL        m_byaCmdSize
  C:2505H         PUBLIC        _ColorToDim
  C:1C7BH         SYMBOL        _GetParamOfMode1
  C:1DF7H         SYMBOL        _GetParamOfMode2
  C:10ADH         SYMBOL        _GetParamOfMode3
  D:00C8H         PUBLIC        T2CON
  C:0F73H         SYMBOL        _GetParamOfMode4
  C:0E18H         SYMBOL        _GetParamOfMode5
  C:08CAH         SYMBOL        _GetParamOfMode6
  C:19C6H         SYMBOL        _GetParamOfMode7
  C:1389H         SYMBOL        _GetParamOfMode8
  C:2418H         SYMBOL        m_byaConvert
  D:00D0H         PUBLIC        PSW
  -------         PROC          _GETPARAMOFMODE1
  D:0015H         SYMBOL        byaData
  D:0018H         SYMBOL        punParam
  C:1C7BH         LINE#         24
  C:1C81H         LINE#         25
  C:1C81H         LINE#         26
  C:1C90H         LINE#         27
  C:1CABH         LINE#         28
  -------         ENDPROC       _GETPARAMOFMODE1
  -------         PROC          _GETPARAMOFMODE2
  D:0015H         SYMBOL        byaData
  D:0018H         SYMBOL        punParam
  C:1DF7H         LINE#         32
  C:1DFDH         LINE#         33
  C:1DFDH         LINE#         34
  C:1E08H         LINE#         35
  C:1E23H         LINE#         36
  -------         ENDPROC       _GETPARAMOFMODE2
  -------         PROC          _GETPARAMOFMODE3
BL51 BANKED LINKER/LOCATER V5.03                                                      03/14/2013  21:36:13  PAGE 10


  D:0015H         SYMBOL        byaData
  D:0018H         SYMBOL        punParam
  C:10ADH         LINE#         40
  C:10B3H         LINE#         41
  C:10B3H         LINE#         42
  C:10C5H         LINE#         43
  C:10DEH         LINE#         44
  C:10F6H         LINE#         45
  C:110EH         LINE#         46
  C:1116H         LINE#         47
  C:112EH         LINE#         48
  C:1136H         LINE#         49
  C:113DH         LINE#         50
  C:1145H         LINE#         51
  C:114CH         LINE#         52
  C:1154H         LINE#         53
  C:115BH         LINE#         54
  C:1163H         LINE#         55
  C:116AH         LINE#         56
  C:1172H         LINE#         57
  C:1179H         LINE#         58
  C:1181H         LINE#         59
  C:1188H         LINE#         60
  C:11A0H         LINE#         61
  C:11BBH         LINE#         62
  -------         ENDPROC       _GETPARAMOFMODE3
  -------         PROC          _GETPARAMOFMODE4
  D:0015H         SYMBOL        byaData
  D:0018H         SYMBOL        punParam
  C:0F73H         LINE#         66
  C:0F79H         LINE#         67
  C:0F79H         LINE#         68
  C:0F8BH         LINE#         69
  C:0FA4H         LINE#         70
  C:0FBCH         LINE#         71
  C:0FD4H         LINE#         72
  C:0FECH         LINE#         73
  C:1004H         LINE#         74
  C:100CH         LINE#         75
  C:1013H         LINE#         76
  C:101BH         LINE#         77
  C:1022H         LINE#         78
  C:102AH         LINE#         79
  C:1031H         LINE#         80
  C:1039H         LINE#         81
  C:1040H         LINE#         82
  C:1048H         LINE#         83
  C:104FH         LINE#         84
  C:1057H         LINE#         85
  C:105EH         LINE#         86
  C:1076H         LINE#         87
  C:1091H         LINE#         88
  -------         ENDPROC       _GETPARAMOFMODE4
  -------         PROC          _GETPARAMOFMODE5
  D:0015H         SYMBOL        byaData
  D:0018H         SYMBOL        punParam
  C:0E18H         LINE#         92
BL51 BANKED LINKER/LOCATER V5.03                                                      03/14/2013  21:36:13  PAGE 11


  C:0E1EH         LINE#         93
  C:0E1EH         LINE#         94
  C:0E30H         LINE#         95
  C:0E49H         LINE#         96
  C:0E61H         LINE#         97
  C:0E79H         LINE#         98
  C:0E91H         LINE#         99
  C:0EA9H         LINE#         100
  C:0EC1H         LINE#         101
  C:0ED9H         LINE#         102
  C:0EE1H         LINE#         103
  C:0EE8H         LINE#         104
  C:0EF0H         LINE#         105
  C:0EF7H         LINE#         106
  C:0EFFH         LINE#         107
  C:0F06H         LINE#         108
  C:0F0EH         LINE#         109
  C:0F15H         LINE#         110
  C:0F1DH         LINE#         111
  C:0F24H         LINE#         112
  C:0F3CH         LINE#         113
  C:0F57H         LINE#         114
  -------         ENDPROC       _GETPARAMOFMODE5
  -------         PROC          _GETPARAMOFMODE6
  D:0015H         SYMBOL        byaData
  D:0018H         SYMBOL        punParam
  C:08CAH         LINE#         118
  C:08D0H         LINE#         119
  C:08D0H         LINE#         120
  C:08E2H         LINE#         121
  C:08FBH         LINE#         122
  C:0913H         LINE#         123
  C:092BH         LINE#         124
  C:0943H         LINE#         125
  C:095BH         LINE#         126
  C:0973H         LINE#         127
  C:098BH         LINE#         128
  C:09A3H         LINE#         129
  C:09BBH         LINE#         130
  C:09D3H         LINE#         131
  C:09EBH         LINE#         132
  C:0A03H         LINE#         133
  C:0A1BH         LINE#         134
  C:0A33H         LINE#         135
  C:0A4BH         LINE#         136
  C:0A63H         LINE#         137
  C:0A7BH         LINE#         138
  C:0A93H         LINE#         139
  C:0AAEH         LINE#         140
  -------         ENDPROC       _GETPARAMOFMODE6
  -------         PROC          _GETPARAMOFMODE7
  D:0015H         SYMBOL        byaData
  D:0018H         SYMBOL        punParam
  C:19C6H         LINE#         144
  C:19CCH         LINE#         145
  C:19CCH         LINE#         146
  C:19DBH         LINE#         147
BL51 BANKED LINKER/LOCATER V5.03                                                      03/14/2013  21:36:13  PAGE 12


  C:19F3H         LINE#         148
  C:1A0EH         LINE#         149
  -------         ENDPROC       _GETPARAMOFMODE7
  -------         PROC          _GETPARAMOFMODE8
  D:0015H         SYMBOL        byaData
  D:0018H         SYMBOL        punParam
  C:1389H         LINE#         153
  C:138FH         LINE#         154
  C:138FH         LINE#         155
  C:13A1H         LINE#         156
  C:13BAH         LINE#         157
  C:13D2H         LINE#         158
  C:13EAH         LINE#         159
  C:1402H         LINE#         160
  C:141DH         LINE#         161
  -------         ENDPROC       _GETPARAMOFMODE8
  -------         PROC          _GETCODECOUNT
  D:0008H         SYMBOL        byaData
  -------         DO            
  D:000BH         SYMBOL        byCodeCount
  D:0005H         SYMBOL        byTypeIndex
  D:000CH         SYMBOL        byRun
  D:0006H         SYMBOL        i
  -------         ENDDO         
  C:1A81H         LINE#         164
  C:1A87H         LINE#         165
  C:1A87H         LINE#         166
  C:1A8AH         LINE#         168
  C:1A8DH         LINE#         169
  C:1A8FH         LINE#         172
  C:1A95H         LINE#         173
  C:1A96H         LINE#         174
  C:1A96H         LINE#         175
  C:1A9AH         LINE#         176
  C:1AA8H         LINE#         177
  C:1AADH         LINE#         178
  C:1AB7H         LINE#         179
  C:1AB9H         LINE#         180
  C:1ABBH         LINE#         181
  C:1ABEH         LINE#         182
  C:1ABEH         LINE#         184
  C:1ACFH         LINE#         185
  C:1AD2H         LINE#         186
  C:1AD2H         LINE#         187
  C:1AD4H         LINE#         188
  C:1AD6H         LINE#         189
  -------         ENDPROC       _GETCODECOUNT
  -------         PROC          _GETBYTECODE
  D:0009H         SYMBOL        byaData
  D:000CH         SYMBOL        index
  D:000DH         SYMBOL        punParam
  -------         DO            
  D:0010H         SYMBOL        byCodeCount
  D:0006H         SYMBOL        byTypeIndex
  D:0011H         SYMBOL        byCmdType
  D:0012H         SYMBOL        byRun
  D:0013H         SYMBOL        i
BL51 BANKED LINKER/LOCATER V5.03                                                      03/14/2013  21:36:13  PAGE 13


  -------         ENDDO         
  C:0C91H         LINE#         191
  C:0C99H         LINE#         192
  C:0C99H         LINE#         193
  C:0C9CH         LINE#         196
  C:0C9FH         LINE#         197
  C:0CA3H         LINE#         200
  C:0CA9H         LINE#         201
  C:0CACH         LINE#         202
  C:0CACH         LINE#         203
  C:0CB3H         LINE#         204
  C:0CC3H         LINE#         205
  C:0CCCH         LINE#         206
  C:0CD3H         LINE#         207
  C:0CFBH         LINE#         208
  C:0D16H         LINE#         209
  C:0D31H         LINE#         210
  C:0D4CH         LINE#         211
  C:0D66H         LINE#         212
  C:0D80H         LINE#         213
  C:0D9AH         LINE#         214
  C:0DB4H         LINE#         215
  C:0DCCH         LINE#         216
  C:0DCCH         LINE#         217
  C:0DCFH         LINE#         218
  C:0DCFH         LINE#         219
  C:0DDFH         LINE#         220
  C:0DE4H         LINE#         221
  C:0DF2H         LINE#         222
  C:0DF4H         LINE#         223
  C:0DF6H         LINE#         224
  C:0DF9H         LINE#         225
  C:0DF9H         LINE#         227
  C:0E0FH         LINE#         228
  C:0E12H         LINE#         229
  C:0E12H         LINE#         230
  C:0E12H         LINE#         231
  C:0E15H         LINE#         232
  C:0E17H         LINE#         233
  -------         ENDPROC       _GETBYTECODE
  -------         PROC          _SPEEDTODELAY
  D:0007H         SYMBOL        speed
  -------         DO            
  C:2420H         SYMBOL        dict
  -------         ENDDO         
  C:0003H         LINE#         236
  C:0003H         LINE#         237
  C:0003H         LINE#         251
  C:0009H         LINE#         252
  -------         ENDPROC       _SPEEDTODELAY
  -------         PROC          _COLORTOLIGHT
  D:0007H         SYMBOL        color
  C:23DEH         LINE#         255
  C:23DEH         LINE#         256
  C:23DEH         LINE#         257
  C:23F8H         LINE#         258
  C:23FBH         LINE#         259
BL51 BANKED LINKER/LOCATER V5.03                                                      03/14/2013  21:36:13  PAGE 14


  C:23FEH         LINE#         260
  C:2401H         LINE#         261
  C:2404H         LINE#         262
  C:2407H         LINE#         263
  C:240AH         LINE#         264
  C:240DH         LINE#         265
  C:240FH         LINE#         266
  C:240FH         LINE#         267
  -------         ENDPROC       _COLORTOLIGHT
  -------         PROC          _COLORTODIM
  D:0007H         SYMBOL        color
  C:2505H         LINE#         270
  C:2505H         LINE#         271
  C:2505H         LINE#         272
  C:251FH         LINE#         273
  C:2522H         LINE#         274
  C:2525H         LINE#         275
  C:2528H         LINE#         276
  C:252BH         LINE#         277
  C:252EH         LINE#         278
  C:252EH         LINE#         279
  C:2531H         LINE#         280
  C:2533H         LINE#         281
  C:2533H         LINE#         282
  -------         ENDPROC       _COLORTODIM
  -------         PROC          _FREQTOSPEED
  D:0007H         SYMBOL        freq
  C:1AD7H         LINE#         284
  C:1AD7H         LINE#         285
  C:1AD7H         LINE#         286
  C:1B0AH         LINE#         287
  C:1B0DH         LINE#         288
  C:1B10H         LINE#         289
  C:1B13H         LINE#         290
  C:1B16H         LINE#         291
  C:1B19H         LINE#         292
  C:1B1CH         LINE#         293
  C:1B1FH         LINE#         294
  C:1B22H         LINE#         295
  C:1B25H         LINE#         296
  C:1B28H         LINE#         297
  C:1B28H         LINE#         298
  C:1B28H         LINE#         299
  C:1B2AH         LINE#         300
  C:1B2AH         LINE#         301
  -------         ENDPROC       _FREQTOSPEED
  -------         PROC          _GETMODE4SPEED
  D:0007H         SYMBOL        speed
  -------         DO            
  C:242BH         SYMBOL        dict
  -------         ENDDO         
  C:000EH         LINE#         303
  C:000EH         LINE#         304
  C:000EH         LINE#         318
  C:0021H         LINE#         319
  -------         ENDPROC       _GETMODE4SPEED
  -------         ENDMOD        BYTECODE
BL51 BANKED LINKER/LOCATER V5.03                                                      03/14/2013  21:36:13  PAGE 15



  -------         MODULE        HL1606
  C:0000H         SYMBOL        _ICE_DUMMY_
  D:0090H         PUBLIC        P1
  D:00A0H         PUBLIC        P2
  I:0022H         SYMBOL        m_wLED1_4_LoopSpeed0
  D:00B0H         PUBLIC        P3
  I:0024H         SYMBOL        m_wLED2_4_LoopSpeed0
  I:0026H         SYMBOL        m_wLED3_4_LoopSpeed0
  I:0028H         SYMBOL        m_wLED4_4_LoopSpeed0
  I:002AH         SYMBOL        m_wLED1_4_DelayS
  X:0074H         SYMBOL        m_byLED1_Mode3_SpeedCounter
  I:002CH         SYMBOL        m_wLED2_4_DelayS
  X:0075H         SYMBOL        m_byLED2_Mode3_SpeedCounter
  I:002EH         SYMBOL        m_wLED3_4_DelayS
  X:0076H         SYMBOL        m_byLED3_Mode3_SpeedCounter
  I:0030H         SYMBOL        m_wLED4_4_DelayS
  X:0077H         SYMBOL        m_byLED4_Mode3_SpeedCounter
  B:0090H.3       PUBLIC        HL1606_LI1
  B:0090H.7       PUBLIC        HL1606_LI2
  C:25D0H         SYMBOL        _HL1606_TBXH1
  B:00A0H.3       PUBLIC        HL1606_LI3
  C:25F4H         SYMBOL        _HL1606_TBXH2
  B:00A0H.7       PUBLIC        HL1606_LI4
  C:2618H         SYMBOL        _HL1606_TBXH3
  D:00A8H         PUBLIC        IE
  C:263CH         SYMBOL        _HL1606_TBXH4
  B:0090H.0       PUBLIC        HL1606_SI1
  X:0078H         SYMBOL        m_byLED1_Mode3_Counter
  B:0090H.4       PUBLIC        HL1606_SI2
  I:0032H         SYMBOL        m_wLED1_4_LoopKi
  X:0079H         SYMBOL        m_byLED2_Mode3_Counter
  B:00A0H.0       PUBLIC        HL1606_SI3
  I:0034H         SYMBOL        m_wLED2_4_LoopKi
  X:007AH         SYMBOL        m_byLED3_Mode3_Counter
  B:00A0H.4       PUBLIC        HL1606_SI4
  C:2867H         PUBLIC        HL1606_LED1_3_IsEnd
  I:0036H         SYMBOL        m_wLED3_4_LoopKi
  X:007BH         SYMBOL        m_byLED4_Mode3_Counter
  C:28BBH         PUBLIC        HL1606_LED1_4_IsEnd
  C:2875H         PUBLIC        HL1606_LED2_3_IsEnd
  I:0038H         SYMBOL        m_wLED4_4_LoopKi
  C:28C7H         PUBLIC        HL1606_LED2_4_IsEnd
  C:2883H         PUBLIC        HL1606_LED3_3_IsEnd
  C:28D3H         PUBLIC        HL1606_LED3_4_IsEnd
  C:2891H         PUBLIC        HL1606_LED4_3_IsEnd
  C:28DFH         PUBLIC        HL1606_LED4_4_IsEnd
  D:00B8H         PUBLIC        IP
  I:003AH         SYMBOL        m_wLED1_4_LoopSi
  I:003CH         SYMBOL        m_wLED2_4_LoopSi
  I:003EH         SYMBOL        m_wLED3_4_LoopSi
  I:0040H         SYMBOL        m_wLED4_4_LoopSi
  X:007CH         SYMBOL        m_byLED1_Mode3_Speed
  X:007DH         SYMBOL        m_byLED2_Mode3_Speed
  X:007EH         SYMBOL        m_byLED3_Mode3_Speed
  X:007FH         SYMBOL        m_byLED4_Mode3_Speed
  I:0042H         SYMBOL        m_wLED1_4_LoopK
BL51 BANKED LINKER/LOCATER V5.03                                                      03/14/2013  21:36:13  PAGE 16


  I:0044H         SYMBOL        m_wLED2_4_LoopK
  I:0046H         SYMBOL        m_wLED3_4_LoopK
  I:0048H         SYMBOL        m_wLED4_4_LoopK
  I:004AH         SYMBOL        m_wLED1_4_LoopS
  I:004CH         SYMBOL        m_wLED2_4_LoopS
  I:004EH         SYMBOL        m_wLED3_4_LoopS
  I:0050H         SYMBOL        m_wLED4_4_LoopS
  D:0098H         PUBLIC        SCON
  D:0088H         PUBLIC        TCON
  C:2768H         SYMBOL        _HL1606_send81
  C:2785H         SYMBOL        _HL1606_send82
  C:27A2H         SYMBOL        _HL1606_send83
  C:2441H         PUBLIC        _HL1606_LED1_1
  C:27BFH         SYMBOL        _HL1606_send84
  C:27DCH         PUBLIC        _HL1606_LED1_2
  C:2472H         PUBLIC        _HL1606_LED2_1
  C:27F8H         PUBLIC        _HL1606_LED2_2
  C:24A3H         PUBLIC        _HL1606_LED3_1
  C:2814H         PUBLIC        _HL1606_LED3_2
  C:24D4H         PUBLIC        _HL1606_LED4_1
  I:0052H         SYMBOL        m_byLED1_4_LoopFlag
  C:2850H         SYMBOL        _mDelay
  C:2830H         PUBLIC        _HL1606_LED4_2
  I:0053H         SYMBOL        m_byLED2_4_LoopFlag
  I:0054H         SYMBOL        m_byLED3_4_LoopFlag
  I:0055H         SYMBOL        m_byLED4_4_LoopFlag
  C:22FEH         PUBLIC        _HL1606_LED1_3_1
  B:0090H.2       PUBLIC        HL1606_CLK1
  C:20AFH         PUBLIC        _HL1606_LED1_4_1
  C:2336H         PUBLIC        _HL1606_LED2_3_1
  B:0090H.6       PUBLIC        HL1606_CLK2
  B:0090H.1       PUBLIC        HL1606_DIN1
  C:20F3H         PUBLIC        _HL1606_LED2_4_1
  C:236EH         PUBLIC        _HL1606_LED3_3_1
  B:00A0H.2       PUBLIC        HL1606_CLK3
  B:0090H.5       PUBLIC        HL1606_DIN2
  C:2137H         PUBLIC        _HL1606_LED3_4_1
  C:23A6H         PUBLIC        _HL1606_LED4_3_1
  I:0056H         SYMBOL        m_wLED1_4_LoopSpeed
  B:00A0H.6       PUBLIC        HL1606_CLK4
  B:00A0H.1       PUBLIC        HL1606_DIN3
  C:217BH         PUBLIC        _HL1606_LED4_4_1
  I:0058H         SYMBOL        m_wLED2_4_LoopSpeed
  B:00A0H.5       PUBLIC        HL1606_DIN4
  I:005AH         SYMBOL        m_wLED3_4_LoopSpeed
  I:005CH         SYMBOL        m_wLED4_4_LoopSpeed
  D:00C8H         PUBLIC        T2CON
  C:1F9FH         PUBLIC        HL1606_LED1_3_2
  I:005EH         SYMBOL        m_wLED1_4_DelaySi
  C:1CC7H         PUBLIC        HL1606_LED1_4_2
  C:1FE3H         PUBLIC        HL1606_LED2_3_2
  I:0060H         SYMBOL        m_wLED2_4_DelaySi
  C:1D13H         PUBLIC        HL1606_LED2_4_2
  C:2660H         PUBLIC        HL1606_LED1_4_3
  C:2027H         PUBLIC        HL1606_LED3_3_2
  I:0062H         SYMBOL        m_wLED3_4_DelaySi
  C:1D5FH         PUBLIC        HL1606_LED3_4_2
BL51 BANKED LINKER/LOCATER V5.03                                                      03/14/2013  21:36:13  PAGE 17


  C:26A2H         PUBLIC        HL1606_LED2_4_3
  C:21BFH         PUBLIC        HL1606_LED1_4_4
  C:206BH         PUBLIC        HL1606_LED4_3_2
  I:0064H         SYMBOL        m_wLED4_4_DelaySi
  C:1DABH         PUBLIC        HL1606_LED4_4_2
  C:26E4H         PUBLIC        HL1606_LED3_4_3
  C:2200H         PUBLIC        HL1606_LED2_4_4
  C:1E87H         PUBLIC        HL1606_LED1_4_5
  C:2726H         PUBLIC        HL1606_LED4_4_3
  C:2241H         PUBLIC        HL1606_LED3_4_4
  C:1ECDH         PUBLIC        HL1606_LED2_4_5
  C:2681H         PUBLIC        HL1606_LED1_4_6
  C:2282H         PUBLIC        HL1606_LED4_4_4
  C:1F13H         PUBLIC        HL1606_LED3_4_5
  C:26C3H         PUBLIC        HL1606_LED2_4_6
  C:1F59H         PUBLIC        HL1606_LED4_4_5
  C:2705H         PUBLIC        HL1606_LED3_4_6
  C:2747H         PUBLIC        HL1606_LED4_4_6
  D:00D0H         PUBLIC        PSW
  C:284CH         SYMBOL        L?0266
  -------         PROC          L?0265
  -------         ENDPROC       L?0265
  C:284CH         SYMBOL        L?0266
  -------         PROC          _MDELAY
  D:0006H         SYMBOL        Delay
  -------         DO            
  D:0005H         SYMBOL        i
  -------         ENDDO         
  C:2850H         LINE#         31
  C:2850H         LINE#         32
  C:2850H         LINE#         34
  C:2859H         LINE#         35
  C:285BH         LINE#         37
  C:285FH         LINE#         38
  C:2866H         LINE#         39
  -------         ENDPROC       _MDELAY
  -------         PROC          _HL1606_SEND81
  D:0007H         SYMBOL        send8bit
  -------         DO            
  D:0006H         SYMBOL        i
  D:0007H         SYMBOL        send8
  -------         ENDDO         
  C:2768H         LINE#         41
  C:2768H         LINE#         42
  C:2768H         LINE#         44
  C:2768H         LINE#         45
  C:276AH         LINE#         46
  C:276EH         LINE#         47
  C:276FH         LINE#         48
  C:2770H         LINE#         50
  C:2772H         LINE#         51
  C:2773H         LINE#         52
  C:2774H         LINE#         53
  C:2775H         LINE#         54
  C:2776H         LINE#         56
  C:2778H         LINE#         57
  C:2779H         LINE#         58
BL51 BANKED LINKER/LOCATER V5.03                                                      03/14/2013  21:36:13  PAGE 18


  C:277AH         LINE#         59
  C:277BH         LINE#         60
  C:277CH         LINE#         62
  C:2780H         LINE#         63
  C:2784H         LINE#         64
  -------         ENDPROC       _HL1606_SEND81
  -------         PROC          _HL1606_SEND82
  D:0007H         SYMBOL        send8bit
  -------         DO            
  D:0006H         SYMBOL        i
  D:0007H         SYMBOL        send8
  -------         ENDDO         
  C:2785H         LINE#         66
  C:2785H         LINE#         67
  C:2785H         LINE#         69
  C:2785H         LINE#         70
  C:2787H         LINE#         71
  C:278BH         LINE#         72
  C:278CH         LINE#         73
  C:278DH         LINE#         75
  C:278FH         LINE#         76
  C:2790H         LINE#         77
  C:2791H         LINE#         78
  C:2792H         LINE#         79
  C:2793H         LINE#         81
  C:2795H         LINE#         82
  C:2796H         LINE#         83
  C:2797H         LINE#         84
  C:2798H         LINE#         85
  C:2799H         LINE#         87
  C:279DH         LINE#         88
  C:27A1H         LINE#         89
  -------         ENDPROC       _HL1606_SEND82
  -------         PROC          _HL1606_SEND83
  D:0007H         SYMBOL        send8bit
  -------         DO            
  D:0006H         SYMBOL        i
  D:0007H         SYMBOL        send8
  -------         ENDDO         
  C:27A2H         LINE#         91
  C:27A2H         LINE#         92
  C:27A2H         LINE#         94
  C:27A2H         LINE#         95
  C:27A4H         LINE#         96
  C:27A8H         LINE#         97
  C:27A9H         LINE#         98
  C:27AAH         LINE#         100
  C:27ACH         LINE#         101
  C:27ADH         LINE#         102
  C:27AEH         LINE#         103
  C:27AFH         LINE#         104
  C:27B0H         LINE#         106
  C:27B2H         LINE#         107
  C:27B3H         LINE#         108
  C:27B4H         LINE#         109
  C:27B5H         LINE#         110
  C:27B6H         LINE#         112
BL51 BANKED LINKER/LOCATER V5.03                                                      03/14/2013  21:36:13  PAGE 19


  C:27BAH         LINE#         113
  C:27BEH         LINE#         114
  -------         ENDPROC       _HL1606_SEND83
  -------         PROC          _HL1606_SEND84
  D:0007H         SYMBOL        send8bit
  -------         DO            
  D:0006H         SYMBOL        i
  D:0007H         SYMBOL        send8
  -------         ENDDO         
  C:27BFH         LINE#         116
  C:27BFH         LINE#         117
  C:27BFH         LINE#         119
  C:27BFH         LINE#         120
  C:27C1H         LINE#         121
  C:27C5H         LINE#         122
  C:27C6H         LINE#         123
  C:27C7H         LINE#         125
  C:27C9H         LINE#         126
  C:27CAH         LINE#         127
  C:27CBH         LINE#         128
  C:27CCH         LINE#         129
  C:27CDH         LINE#         131
  C:27CFH         LINE#         132
  C:27D0H         LINE#         133
  C:27D1H         LINE#         134
  C:27D2H         LINE#         135
  C:27D3H         LINE#         137
  C:27D7H         LINE#         138
  C:27DBH         LINE#         139
  -------         ENDPROC       _HL1606_SEND84
  -------         PROC          _HL1606_TBXH1
  D:0011H         SYMBOL        TBXH_count
  D:0002H         SYMBOL        TBXH_time
  -------         DO            
  D:0082H         SYMBOL        i
  -------         ENDDO         
  C:25D0H         LINE#         141
  C:25D8H         LINE#         142
  C:25D8H         LINE#         144
  C:25E6H         LINE#         145
  C:25E8H         LINE#         146
  C:25EBH         LINE#         147
  C:25EDH         LINE#         148
  C:25F0H         LINE#         149
  C:25F3H         LINE#         150
  -------         ENDPROC       _HL1606_TBXH1
  -------         PROC          _HL1606_TBXH2
  D:0011H         SYMBOL        TBXH_count
  D:0002H         SYMBOL        TBXH_time
  -------         DO            
  D:0082H         SYMBOL        i
  -------         ENDDO         
  C:25F4H         LINE#         152
  C:25FCH         LINE#         153
  C:25FCH         LINE#         155
  C:260AH         LINE#         156
  C:260CH         LINE#         157
BL51 BANKED LINKER/LOCATER V5.03                                                      03/14/2013  21:36:13  PAGE 20


  C:260FH         LINE#         158
  C:2611H         LINE#         159
  C:2614H         LINE#         160
  C:2617H         LINE#         161
  -------         ENDPROC       _HL1606_TBXH2
  -------         PROC          _HL1606_TBXH3
  D:0011H         SYMBOL        TBXH_count
  D:0002H         SYMBOL        TBXH_time
  -------         DO            
  D:0082H         SYMBOL        i
  -------         ENDDO         
  C:2618H         LINE#         163
  C:2620H         LINE#         164
  C:2620H         LINE#         166
  C:262EH         LINE#         167
  C:2630H         LINE#         168
  C:2633H         LINE#         169
  C:2635H         LINE#         170
  C:2638H         LINE#         171
  C:263BH         LINE#         172
  -------         ENDPROC       _HL1606_TBXH3
  -------         PROC          _HL1606_TBXH4
  D:0011H         SYMBOL        TBXH_count
  D:0002H         SYMBOL        TBXH_time
  -------         DO            
  D:0082H         SYMBOL        i
  -------         ENDDO         
  C:263CH         LINE#         174
  C:2644H         LINE#         175
  C:2644H         LINE#         177
  C:2652H         LINE#         178
  C:2654H         LINE#         179
  C:2657H         LINE#         180
  C:2659H         LINE#         181
  C:265CH         LINE#         182
  C:265FH         LINE#         183
  -------         ENDPROC       _HL1606_TBXH4
  -------         PROC          _HL1606_LED1_1
  D:0005H         SYMBOL        color
  -------         DO            
  D:0004H         SYMBOL        i
  -------         ENDDO         
  C:2441H         LINE#         186
  C:2443H         LINE#         187
  C:2443H         LINE#         189
  C:2445H         LINE#         190
  C:2446H         LINE#         191
  C:2447H         LINE#         192
  C:2448H         LINE#         193
  C:2449H         LINE#         195
  C:244BH         LINE#         196
  C:2450H         LINE#         197
  C:2454H         LINE#         198
  C:2456H         LINE#         199
  C:245BH         LINE#         200
  C:245FH         LINE#         201
  C:2460H         LINE#         202
BL51 BANKED LINKER/LOCATER V5.03                                                      03/14/2013  21:36:13  PAGE 21


  C:2461H         LINE#         203
  C:2462H         LINE#         204
  C:2463H         LINE#         206
  C:2465H         LINE#         207
  C:2466H         LINE#         208
  C:2467H         LINE#         210
  -------         ENDPROC       _HL1606_LED1_1
  -------         PROC          _HL1606_LED2_1
  D:0005H         SYMBOL        color
  -------         DO            
  D:0004H         SYMBOL        i
  -------         ENDDO         
  C:2472H         LINE#         214
  C:2474H         LINE#         215
  C:2474H         LINE#         217
  C:2476H         LINE#         218
  C:2477H         LINE#         219
  C:2478H         LINE#         220
  C:2479H         LINE#         221
  C:247AH         LINE#         223
  C:247CH         LINE#         224
  C:2481H         LINE#         225
  C:2485H         LINE#         226
  C:2487H         LINE#         227
  C:248CH         LINE#         228
  C:2490H         LINE#         229
  C:2491H         LINE#         230
  C:2492H         LINE#         231
  C:2493H         LINE#         232
  C:2494H         LINE#         234
  C:2496H         LINE#         235
  C:2497H         LINE#         236
  C:2498H         LINE#         238
  -------         ENDPROC       _HL1606_LED2_1
  -------         PROC          _HL1606_LED3_1
  D:0005H         SYMBOL        color
  -------         DO            
  D:0004H         SYMBOL        i
  -------         ENDDO         
  C:24A3H         LINE#         242
  C:24A5H         LINE#         243
  C:24A5H         LINE#         245
  C:24A7H         LINE#         246
  C:24A8H         LINE#         247
  C:24A9H         LINE#         248
  C:24AAH         LINE#         249
  C:24ABH         LINE#         251
  C:24ADH         LINE#         252
  C:24B2H         LINE#         253
  C:24B6H         LINE#         254
  C:24B8H         LINE#         255
  C:24BDH         LINE#         256
  C:24C1H         LINE#         257
  C:24C2H         LINE#         258
  C:24C3H         LINE#         259
  C:24C4H         LINE#         260
  C:24C5H         LINE#         262
BL51 BANKED LINKER/LOCATER V5.03                                                      03/14/2013  21:36:13  PAGE 22


  C:24C7H         LINE#         263
  C:24C8H         LINE#         264
  C:24C9H         LINE#         266
  -------         ENDPROC       _HL1606_LED3_1
  -------         PROC          _HL1606_LED4_1
  D:0005H         SYMBOL        color
  -------         DO            
  D:0004H         SYMBOL        i
  -------         ENDDO         
  C:24D4H         LINE#         270
  C:24D6H         LINE#         271
  C:24D6H         LINE#         273
  C:24D8H         LINE#         274
  C:24D9H         LINE#         275
  C:24DAH         LINE#         276
  C:24DBH         LINE#         277
  C:24DCH         LINE#         279
  C:24DEH         LINE#         280
  C:24E3H         LINE#         281
  C:24E7H         LINE#         282
  C:24E9H         LINE#         283
  C:24EEH         LINE#         284
  C:24F2H         LINE#         285
  C:24F3H         LINE#         286
  C:24F4H         LINE#         287
  C:24F5H         LINE#         288
  C:24F6H         LINE#         290
  C:24F8H         LINE#         291
  C:24F9H         LINE#         292
  C:24FAH         LINE#         294
  -------         ENDPROC       _HL1606_LED4_1
  -------         PROC          _HL1606_LED1_2
  D:0007H         SYMBOL        color
  C:27DCH         LINE#         298
  C:27DCH         LINE#         299
  C:27DCH         LINE#         300
  C:27DEH         LINE#         301
  C:27DFH         LINE#         302
  C:27E0H         LINE#         303
  C:27E1H         LINE#         304
  C:27E2H         LINE#         306
  C:27E5H         LINE#         307
  C:27E6H         LINE#         308
  C:27E7H         LINE#         309
  C:27E8H         LINE#         310
  C:27E9H         LINE#         312
  C:27EBH         LINE#         313
  C:27ECH         LINE#         314
  C:27EDH         LINE#         316
  -------         ENDPROC       _HL1606_LED1_2
  -------         PROC          _HL1606_LED2_2
  D:0007H         SYMBOL        color
  C:27F8H         LINE#         320
  C:27F8H         LINE#         321
  C:27F8H         LINE#         322
  C:27FAH         LINE#         323
  C:27FBH         LINE#         324
BL51 BANKED LINKER/LOCATER V5.03                                                      03/14/2013  21:36:13  PAGE 23


  C:27FCH         LINE#         325
  C:27FDH         LINE#         326
  C:27FEH         LINE#         328
  C:2801H         LINE#         329
  C:2802H         LINE#         330
  C:2803H         LINE#         331
  C:2804H         LINE#         332
  C:2805H         LINE#         334
  C:2807H         LINE#         335
  C:2808H         LINE#         336
  C:2809H         LINE#         338
  -------         ENDPROC       _HL1606_LED2_2
  -------         PROC          _HL1606_LED3_2
  D:0007H         SYMBOL        color
  C:2814H         LINE#         342
  C:2814H         LINE#         343
  C:2814H         LINE#         344
  C:2816H         LINE#         345
  C:2817H         LINE#         346
  C:2818H         LINE#         347
  C:2819H         LINE#         348
  C:281AH         LINE#         350
  C:281DH         LINE#         351
  C:281EH         LINE#         352
  C:281FH         LINE#         353
  C:2820H         LINE#         354
  C:2821H         LINE#         356
  C:2823H         LINE#         357
  C:2824H         LINE#         358
  C:2825H         LINE#         360
  -------         ENDPROC       _HL1606_LED3_2
  -------         PROC          _HL1606_LED4_2
  D:0007H         SYMBOL        color
  C:2830H         LINE#         364
  C:2830H         LINE#         365
  C:2830H         LINE#         366
  C:2832H         LINE#         367
  C:2833H         LINE#         368
  C:2834H         LINE#         369
  C:2835H         LINE#         370
  C:2836H         LINE#         372
  C:2839H         LINE#         373
  C:283AH         LINE#         374
  C:283BH         LINE#         375
  C:283CH         LINE#         376
  C:283DH         LINE#         378
  C:283FH         LINE#         379
  C:2840H         LINE#         380
  C:2841H         LINE#         382
  -------         ENDPROC       _HL1606_LED4_2
  -------         PROC          _HL1606_LED1_3_1
  D:0001H         SYMBOL        k
  D:0005H         SYMBOL        color
  D:0003H         SYMBOL        speed
  -------         DO            
  D:0082H         SYMBOL        i
  -------         ENDDO         
BL51 BANKED LINKER/LOCATER V5.03                                                      03/14/2013  21:36:13  PAGE 24


  C:22FEH         LINE#         389
  C:2300H         LINE#         390
  C:2300H         LINE#         392
  C:2302H         LINE#         393
  C:2303H         LINE#         394
  C:2304H         LINE#         395
  C:2305H         LINE#         396
  C:2306H         LINE#         398
  C:2315H         LINE#         399
  C:231AH         LINE#         400
  C:231DH         LINE#         401
  C:231EH         LINE#         402
  C:231FH         LINE#         403
  C:2320H         LINE#         404
  C:2321H         LINE#         406
  C:2323H         LINE#         407
  C:2324H         LINE#         408
  C:2325H         LINE#         409
  C:2326H         LINE#         410
  C:2327H         LINE#         412
  C:232CH         LINE#         413
  C:2330H         LINE#         414
  C:2335H         LINE#         415
  -------         ENDPROC       _HL1606_LED1_3_1
  -------         PROC          HL1606_LED1_3_2
  C:1F9FH         LINE#         417
  C:1F9FH         LINE#         418
  C:1F9FH         LINE#         419
  C:1FA7H         LINE#         421
  C:1FA7H         LINE#         422
  C:1FADH         LINE#         423
  C:1FB3H         LINE#         424
  C:1FBAH         LINE#         425
  C:1FBCH         LINE#         426
  C:1FBEH         LINE#         427
  C:1FC0H         LINE#         428
  C:1FC0H         LINE#         429
  C:1FC6H         LINE#         430
  C:1FC8H         LINE#         431
  C:1FCEH         LINE#         432
  C:1FCEH         LINE#         433
  C:1FCEH         LINE#         434
  C:1FD4H         LINE#         435
  C:1FE0H         LINE#         436
  C:1FE2H         LINE#         437
  C:1FE2H         LINE#         438
  -------         ENDPROC       HL1606_LED1_3_2
  -------         PROC          HL1606_LED1_3_ISEND
  C:2867H         LINE#         440
  C:2867H         LINE#         441
  C:2867H         LINE#         442
  C:2874H         LINE#         443
  -------         ENDPROC       HL1606_LED1_3_ISEND
  -------         PROC          _HL1606_LED2_3_1
  D:0001H         SYMBOL        k
  D:0005H         SYMBOL        color
  D:0003H         SYMBOL        speed
BL51 BANKED LINKER/LOCATER V5.03                                                      03/14/2013  21:36:13  PAGE 25


  -------         DO            
  D:0082H         SYMBOL        i
  -------         ENDDO         
  C:2336H         LINE#         449
  C:2338H         LINE#         450
  C:2338H         LINE#         452
  C:233AH         LINE#         453
  C:233BH         LINE#         454
  C:233CH         LINE#         455
  C:233DH         LINE#         456
  C:233EH         LINE#         458
  C:234DH         LINE#         459
  C:2352H         LINE#         460
  C:2355H         LINE#         461
  C:2356H         LINE#         462
  C:2357H         LINE#         463
  C:2358H         LINE#         464
  C:2359H         LINE#         466
  C:235BH         LINE#         467
  C:235CH         LINE#         468
  C:235DH         LINE#         469
  C:235EH         LINE#         470
  C:235FH         LINE#         472
  C:2364H         LINE#         473
  C:2368H         LINE#         474
  C:236DH         LINE#         475
  -------         ENDPROC       _HL1606_LED2_3_1
  -------         PROC          HL1606_LED2_3_2
  C:1FE3H         LINE#         477
  C:1FE3H         LINE#         478
  C:1FE3H         LINE#         479
  C:1FEBH         LINE#         481
  C:1FEBH         LINE#         482
  C:1FF1H         LINE#         483
  C:1FF7H         LINE#         484
  C:1FFEH         LINE#         485
  C:2000H         LINE#         486
  C:2002H         LINE#         487
  C:2004H         LINE#         488
  C:2004H         LINE#         489
  C:200AH         LINE#         490
  C:200CH         LINE#         491
  C:2012H         LINE#         492
  C:2012H         LINE#         493
  C:2012H         LINE#         494
  C:2018H         LINE#         495
  C:2024H         LINE#         496
  C:2026H         LINE#         497
  C:2026H         LINE#         498
  -------         ENDPROC       HL1606_LED2_3_2
  -------         PROC          HL1606_LED2_3_ISEND
  C:2875H         LINE#         500
  C:2875H         LINE#         501
  C:2875H         LINE#         502
  C:2882H         LINE#         503
  -------         ENDPROC       HL1606_LED2_3_ISEND
  -------         PROC          _HL1606_LED3_3_1
BL51 BANKED LINKER/LOCATER V5.03                                                      03/14/2013  21:36:13  PAGE 26


  D:0001H         SYMBOL        k
  D:0005H         SYMBOL        color
  D:0003H         SYMBOL        speed
  -------         DO            
  D:0082H         SYMBOL        i
  -------         ENDDO         
  C:236EH         LINE#         509
  C:2370H         LINE#         510
  C:2370H         LINE#         512
  C:2372H         LINE#         513
  C:2373H         LINE#         514
  C:2374H         LINE#         515
  C:2375H         LINE#         516
  C:2376H         LINE#         518
  C:2385H         LINE#         519
  C:238AH         LINE#         520
  C:238DH         LINE#         521
  C:238EH         LINE#         522
  C:238FH         LINE#         523
  C:2390H         LINE#         524
  C:2391H         LINE#         526
  C:2393H         LINE#         527
  C:2394H         LINE#         528
  C:2395H         LINE#         529
  C:2396H         LINE#         530
  C:2397H         LINE#         532
  C:239CH         LINE#         533
  C:23A0H         LINE#         534
  C:23A5H         LINE#         535
  -------         ENDPROC       _HL1606_LED3_3_1
  -------         PROC          HL1606_LED3_3_2
  C:2027H         LINE#         537
  C:2027H         LINE#         538
  C:2027H         LINE#         539
  C:202FH         LINE#         541
  C:202FH         LINE#         542
  C:2035H         LINE#         543
  C:203BH         LINE#         544
  C:2042H         LINE#         545
  C:2044H         LINE#         546
  C:2046H         LINE#         547
  C:2048H         LINE#         548
  C:2048H         LINE#         549
  C:204EH         LINE#         550
  C:2050H         LINE#         551
  C:2056H         LINE#         552
  C:2056H         LINE#         553
  C:2056H         LINE#         554
  C:205CH         LINE#         555
  C:2068H         LINE#         556
  C:206AH         LINE#         557
  C:206AH         LINE#         558
  -------         ENDPROC       HL1606_LED3_3_2
  -------         PROC          HL1606_LED3_3_ISEND
  C:2883H         LINE#         560
  C:2883H         LINE#         561
  C:2883H         LINE#         562
BL51 BANKED LINKER/LOCATER V5.03                                                      03/14/2013  21:36:13  PAGE 27


  C:2890H         LINE#         563
  -------         ENDPROC       HL1606_LED3_3_ISEND
  -------         PROC          _HL1606_LED4_3_1
  D:0001H         SYMBOL        k
  D:0005H         SYMBOL        color
  D:0003H         SYMBOL        speed
  -------         DO            
  D:0082H         SYMBOL        i
  -------         ENDDO         
  C:23A6H         LINE#         569
  C:23A8H         LINE#         570
  C:23A8H         LINE#         572
  C:23AAH         LINE#         573
  C:23ABH         LINE#         574
  C:23ACH         LINE#         575
  C:23ADH         LINE#         576
  C:23AEH         LINE#         578
  C:23BDH         LINE#         579
  C:23C2H         LINE#         580
  C:23C5H         LINE#         581
  C:23C6H         LINE#         582
  C:23C7H         LINE#         583
  C:23C8H         LINE#         584
  C:23C9H         LINE#         586
  C:23CBH         LINE#         587
  C:23CCH         LINE#         588
  C:23CDH         LINE#         589
  C:23CEH         LINE#         590
  C:23CFH         LINE#         592
  C:23D4H         LINE#         593
  C:23D8H         LINE#         594
  C:23DDH         LINE#         595
  -------         ENDPROC       _HL1606_LED4_3_1
  -------         PROC          HL1606_LED4_3_2
  C:206BH         LINE#         597
  C:206BH         LINE#         598
  C:206BH         LINE#         599
  C:2073H         LINE#         601
  C:2073H         LINE#         602
  C:2079H         LINE#         603
  C:207FH         LINE#         604
  C:2086H         LINE#         605
  C:2088H         LINE#         606
  C:208AH         LINE#         607
  C:208CH         LINE#         608
  C:208CH         LINE#         609
  C:2092H         LINE#         610
  C:2094H         LINE#         611
  C:209AH         LINE#         612
  C:209AH         LINE#         613
  C:209AH         LINE#         614
  C:20A0H         LINE#         615
  C:20ACH         LINE#         616
  C:20AEH         LINE#         617
  C:20AEH         LINE#         618
  -------         ENDPROC       HL1606_LED4_3_2
  -------         PROC          HL1606_LED4_3_ISEND
BL51 BANKED LINKER/LOCATER V5.03                                                      03/14/2013  21:36:13  PAGE 28


  C:2891H         LINE#         620
  C:2891H         LINE#         621
  C:2891H         LINE#         622
  C:289EH         LINE#         623
  -------         ENDPROC       HL1606_LED4_3_ISEND
  -------         PROC          _HL1606_LED1_4_1
  D:0004H         SYMBOL        k
  D:0007H         SYMBOL        color
  D:0003H         SYMBOL        speed0
  D:0013H         SYMBOL        speed
  C:20AFH         LINE#         635
  C:20B3H         LINE#         636
  C:20B3H         LINE#         637
  C:20B7H         LINE#         639
  C:20B9H         LINE#         640
  C:20BAH         LINE#         641
  C:20BBH         LINE#         642
  C:20BCH         LINE#         643
  C:20BDH         LINE#         645
  C:20C0H         LINE#         646
  C:20C1H         LINE#         647
  C:20C2H         LINE#         648
  C:20C3H         LINE#         649
  C:20C4H         LINE#         651
  C:20C6H         LINE#         652
  C:20C7H         LINE#         653
  C:20C8H         LINE#         654
  C:20C9H         LINE#         655
  C:20CAH         LINE#         657
  C:20D3H         LINE#         658
  C:20DEH         LINE#         659
  C:20E7H         LINE#         660
  C:20EEH         LINE#         662
  C:20F2H         LINE#         663
  -------         ENDPROC       _HL1606_LED1_4_1
  -------         PROC          HL1606_LED1_4_2
  C:1CC7H         LINE#         665
  C:1CC7H         LINE#         666
  C:1CC7H         LINE#         667
  C:1CCEH         LINE#         669
  C:1CCEH         LINE#         670
  C:1CDBH         LINE#         671
  C:1CE3H         LINE#         673
  C:1CE9H         LINE#         674
  C:1CEBH         LINE#         675
  C:1CEDH         LINE#         676
  C:1CEFH         LINE#         677
  C:1CEFH         LINE#         680
  C:1CFDH         LINE#         681
  C:1D03H         LINE#         682
  C:1D07H         LINE#         683
  C:1D08H         LINE#         685
  C:1D0CH         LINE#         686
  C:1D12H         LINE#         687
  C:1D12H         LINE#         688
  -------         ENDPROC       HL1606_LED1_4_2
  -------         PROC          HL1606_LED1_4_3
BL51 BANKED LINKER/LOCATER V5.03                                                      03/14/2013  21:36:13  PAGE 29


  C:2660H         LINE#         690
  C:2660H         LINE#         691
  C:2660H         LINE#         692
  C:2666H         LINE#         694
  C:2666H         LINE#         695
  C:2673H         LINE#         696
  C:267BH         LINE#         698
  C:267CH         LINE#         699
  C:2680H         LINE#         700
  C:2680H         LINE#         701
  -------         ENDPROC       HL1606_LED1_4_3
  -------         PROC          HL1606_LED1_4_4
  C:21BFH         LINE#         703
  C:21BFH         LINE#         704
  C:21BFH         LINE#         705
  C:21C6H         LINE#         707
  C:21C6H         LINE#         708
  C:21D3H         LINE#         709
  C:21D5H         LINE#         710
  C:21D6H         LINE#         711
  C:21D7H         LINE#         712
  C:21D8H         LINE#         713
  C:21D9H         LINE#         715
  C:21DEH         LINE#         716
  C:21DFH         LINE#         717
  C:21E0H         LINE#         718
  C:21E1H         LINE#         719
  C:21E2H         LINE#         721
  C:21E4H         LINE#         722
  C:21E5H         LINE#         723
  C:21E6H         LINE#         724
  C:21E7H         LINE#         725
  C:21E8H         LINE#         727
  C:21F0H         LINE#         728
  C:21F6H         LINE#         729
  C:21FAH         LINE#         730
  C:21FBH         LINE#         731
  C:21FFH         LINE#         732
  C:21FFH         LINE#         733
  -------         ENDPROC       HL1606_LED1_4_4
  -------         PROC          HL1606_LED1_4_5
  C:1E87H         LINE#         735
  C:1E87H         LINE#         736
  C:1E87H         LINE#         737
  C:1E8EH         LINE#         739
  C:1E8EH         LINE#         740
  C:1E9BH         LINE#         741
  C:1EA3H         LINE#         743
  C:1EA9H         LINE#         744
  C:1EABH         LINE#         745
  C:1EADH         LINE#         746
  C:1EAFH         LINE#         747
  C:1EAFH         LINE#         750
  C:1EBDH         LINE#         751
  C:1EC3H         LINE#         752
  C:1EC7H         LINE#         753
  C:1EC8H         LINE#         755
BL51 BANKED LINKER/LOCATER V5.03                                                      03/14/2013  21:36:13  PAGE 30


  C:1ECCH         LINE#         756
  C:1ECCH         LINE#         757
  -------         ENDPROC       HL1606_LED1_4_5
  -------         PROC          HL1606_LED1_4_6
  C:2681H         LINE#         759
  C:2681H         LINE#         760
  C:2681H         LINE#         761
  C:2687H         LINE#         763
  C:2687H         LINE#         764
  C:2694H         LINE#         765
  C:269CH         LINE#         767
  C:269DH         LINE#         768
  C:26A1H         LINE#         769
  C:26A1H         LINE#         770
  -------         ENDPROC       HL1606_LED1_4_6
  -------         PROC          HL1606_LED1_4_ISEND
  C:28BBH         LINE#         772
  C:28BBH         LINE#         773
  C:28BBH         LINE#         774
  C:28C6H         LINE#         775
  -------         ENDPROC       HL1606_LED1_4_ISEND
  -------         PROC          _HL1606_LED2_4_1
  D:0004H         SYMBOL        k
  D:0007H         SYMBOL        color
  D:0003H         SYMBOL        speed0
  D:0013H         SYMBOL        speed
  C:20F3H         LINE#         787
  C:20F7H         LINE#         788
  C:20F7H         LINE#         789
  C:20FBH         LINE#         791
  C:20FDH         LINE#         792
  C:20FEH         LINE#         793
  C:20FFH         LINE#         794
  C:2100H         LINE#         795
  C:2101H         LINE#         797
  C:2104H         LINE#         798
  C:2105H         LINE#         799
  C:2106H         LINE#         800
  C:2107H         LINE#         801
  C:2108H         LINE#         803
  C:210AH         LINE#         804
  C:210BH         LINE#         805
  C:210CH         LINE#         806
  C:210DH         LINE#         807
  C:210EH         LINE#         809
  C:2117H         LINE#         810
  C:2122H         LINE#         811
  C:212BH         LINE#         812
  C:2132H         LINE#         814
  C:2136H         LINE#         815
  -------         ENDPROC       _HL1606_LED2_4_1
  -------         PROC          HL1606_LED2_4_2
  C:1D13H         LINE#         817
  C:1D13H         LINE#         818
  C:1D13H         LINE#         819
  C:1D1AH         LINE#         821
  C:1D1AH         LINE#         822
BL51 BANKED LINKER/LOCATER V5.03                                                      03/14/2013  21:36:13  PAGE 31


  C:1D27H         LINE#         823
  C:1D2FH         LINE#         825
  C:1D35H         LINE#         826
  C:1D37H         LINE#         827
  C:1D39H         LINE#         828
  C:1D3BH         LINE#         829
  C:1D3BH         LINE#         832
  C:1D49H         LINE#         833
  C:1D4FH         LINE#         834
  C:1D53H         LINE#         835
  C:1D54H         LINE#         837
  C:1D58H         LINE#         838
  C:1D5EH         LINE#         839
  C:1D5EH         LINE#         840
  -------         ENDPROC       HL1606_LED2_4_2
  -------         PROC          HL1606_LED2_4_3
  C:26A2H         LINE#         842
  C:26A2H         LINE#         843
  C:26A2H         LINE#         844
  C:26A8H         LINE#         846
  C:26A8H         LINE#         847
  C:26B5H         LINE#         848
  C:26BDH         LINE#         850
  C:26BEH         LINE#         851
  C:26C2H         LINE#         852
  C:26C2H         LINE#         853
  -------         ENDPROC       HL1606_LED2_4_3
  -------         PROC          HL1606_LED2_4_4
  C:2200H         LINE#         855
  C:2200H         LINE#         856
  C:2200H         LINE#         857
  C:2207H         LINE#         859
  C:2207H         LINE#         860
  C:2214H         LINE#         861
  C:2216H         LINE#         862
  C:2217H         LINE#         863
  C:2218H         LINE#         864
  C:2219H         LINE#         865
  C:221AH         LINE#         867
  C:221FH         LINE#         868
  C:2220H         LINE#         869
  C:2221H         LINE#         870
  C:2222H         LINE#         871
  C:2223H         LINE#         873
  C:2225H         LINE#         874
  C:2226H         LINE#         875
  C:2227H         LINE#         876
  C:2228H         LINE#         877
  C:2229H         LINE#         879
  C:2231H         LINE#         880
  C:2237H         LINE#         881
  C:223BH         LINE#         882
  C:223CH         LINE#         883
  C:2240H         LINE#         884
  C:2240H         LINE#         885
  -------         ENDPROC       HL1606_LED2_4_4
  -------         PROC          HL1606_LED2_4_5
BL51 BANKED LINKER/LOCATER V5.03                                                      03/14/2013  21:36:13  PAGE 32


  C:1ECDH         LINE#         887
  C:1ECDH         LINE#         888
  C:1ECDH         LINE#         889
  C:1ED4H         LINE#         891
  C:1ED4H         LINE#         892
  C:1EE1H         LINE#         893
  C:1EE9H         LINE#         895
  C:1EEFH         LINE#         896
  C:1EF1H         LINE#         897
  C:1EF3H         LINE#         898
  C:1EF5H         LINE#         899
  C:1EF5H         LINE#         902
  C:1F03H         LINE#         903
  C:1F09H         LINE#         904
  C:1F0DH         LINE#         905
  C:1F0EH         LINE#         907
  C:1F12H         LINE#         908
  C:1F12H         LINE#         909
  -------         ENDPROC       HL1606_LED2_4_5
  -------         PROC          HL1606_LED2_4_6
  C:26C3H         LINE#         911
  C:26C3H         LINE#         912
  C:26C3H         LINE#         913
  C:26C9H         LINE#         915
  C:26C9H         LINE#         916
  C:26D6H         LINE#         917
  C:26DEH         LINE#         919
  C:26DFH         LINE#         920
  C:26E3H         LINE#         921
  C:26E3H         LINE#         922
  -------         ENDPROC       HL1606_LED2_4_6
  -------         PROC          HL1606_LED2_4_ISEND
  C:28C7H         LINE#         924
  C:28C7H         LINE#         925
  C:28C7H         LINE#         926
  C:28D2H         LINE#         927
  -------         ENDPROC       HL1606_LED2_4_ISEND
  -------         PROC          _HL1606_LED3_4_1
  D:0004H         SYMBOL        k
  D:0007H         SYMBOL        color
  D:0003H         SYMBOL        speed0
  D:0013H         SYMBOL        speed
  C:2137H         LINE#         939
  C:213BH         LINE#         940
  C:213BH         LINE#         941
  C:213FH         LINE#         943
  C:2141H         LINE#         944
  C:2142H         LINE#         945
  C:2143H         LINE#         946
  C:2144H         LINE#         947
  C:2145H         LINE#         949
  C:2148H         LINE#         950
  C:2149H         LINE#         951
  C:214AH         LINE#         952
  C:214BH         LINE#         953
  C:214CH         LINE#         955
  C:214EH         LINE#         956
BL51 BANKED LINKER/LOCATER V5.03                                                      03/14/2013  21:36:13  PAGE 33


  C:214FH         LINE#         957
  C:2150H         LINE#         958
  C:2151H         LINE#         959
  C:2152H         LINE#         961
  C:215BH         LINE#         962
  C:2166H         LINE#         963
  C:216FH         LINE#         964
  C:2176H         LINE#         966
  C:217AH         LINE#         967
  -------         ENDPROC       _HL1606_LED3_4_1
  -------         PROC          HL1606_LED3_4_2
  C:1D5FH         LINE#         969
  C:1D5FH         LINE#         970
  C:1D5FH         LINE#         971
  C:1D66H         LINE#         973
  C:1D66H         LINE#         974
  C:1D73H         LINE#         975
  C:1D7BH         LINE#         977
  C:1D81H         LINE#         978
  C:1D83H         LINE#         979
  C:1D85H         LINE#         980
  C:1D87H         LINE#         981
  C:1D87H         LINE#         984
  C:1D95H         LINE#         985
  C:1D9BH         LINE#         986
  C:1D9FH         LINE#         987
  C:1DA0H         LINE#         989
  C:1DA4H         LINE#         990
  C:1DAAH         LINE#         991
  C:1DAAH         LINE#         992
  -------         ENDPROC       HL1606_LED3_4_2
  -------         PROC          HL1606_LED3_4_3
  C:26E4H         LINE#         994
  C:26E4H         LINE#         995
  C:26E4H         LINE#         996
  C:26EAH         LINE#         998
  C:26EAH         LINE#         999
  C:26F7H         LINE#         1000
  C:26FFH         LINE#         1002
  C:2700H         LINE#         1003
  C:2704H         LINE#         1004
  C:2704H         LINE#         1005
  -------         ENDPROC       HL1606_LED3_4_3
  -------         PROC          HL1606_LED3_4_4
  C:2241H         LINE#         1007
  C:2241H         LINE#         1008
  C:2241H         LINE#         1009
  C:2248H         LINE#         1011
  C:2248H         LINE#         1012
  C:2255H         LINE#         1013
  C:2257H         LINE#         1014
  C:2258H         LINE#         1015
  C:2259H         LINE#         1016
  C:225AH         LINE#         1017
  C:225BH         LINE#         1019
  C:2260H         LINE#         1020
  C:2261H         LINE#         1021
BL51 BANKED LINKER/LOCATER V5.03                                                      03/14/2013  21:36:13  PAGE 34


  C:2262H         LINE#         1022
  C:2263H         LINE#         1023
  C:2264H         LINE#         1025
  C:2266H         LINE#         1026
  C:2267H         LINE#         1027
  C:2268H         LINE#         1028
  C:2269H         LINE#         1029
  C:226AH         LINE#         1031
  C:2272H         LINE#         1032
  C:2278H         LINE#         1033
  C:227CH         LINE#         1034
  C:227DH         LINE#         1035
  C:2281H         LINE#         1036
  C:2281H         LINE#         1037
  -------         ENDPROC       HL1606_LED3_4_4
  -------         PROC          HL1606_LED3_4_5
  C:1F13H         LINE#         1039
  C:1F13H         LINE#         1040
  C:1F13H         LINE#         1041
  C:1F1AH         LINE#         1043
  C:1F1AH         LINE#         1044
  C:1F27H         LINE#         1045
  C:1F2FH         LINE#         1047
  C:1F35H         LINE#         1048
  C:1F37H         LINE#         1049
  C:1F39H         LINE#         1050
  C:1F3BH         LINE#         1051
  C:1F3BH         LINE#         1054
  C:1F49H         LINE#         1055
  C:1F4FH         LINE#         1056
  C:1F53H         LINE#         1057
  C:1F54H         LINE#         1059
  C:1F58H         LINE#         1060
  C:1F58H         LINE#         1061
  -------         ENDPROC       HL1606_LED3_4_5
  -------         PROC          HL1606_LED3_4_6
  C:2705H         LINE#         1063
  C:2705H         LINE#         1064
  C:2705H         LINE#         1065
  C:270BH         LINE#         1067
  C:270BH         LINE#         1068
  C:2718H         LINE#         1069
  C:2720H         LINE#         1071
  C:2721H         LINE#         1072
  C:2725H         LINE#         1073
  C:2725H         LINE#         1074
  -------         ENDPROC       HL1606_LED3_4_6
  -------         PROC          HL1606_LED3_4_ISEND
  C:28D3H         LINE#         1076
  C:28D3H         LINE#         1077
  C:28D3H         LINE#         1078
  C:28DEH         LINE#         1079
  -------         ENDPROC       HL1606_LED3_4_ISEND
  -------         PROC          _HL1606_LED4_4_1
  D:0004H         SYMBOL        k
  D:0007H         SYMBOL        color
  D:0003H         SYMBOL        speed0
BL51 BANKED LINKER/LOCATER V5.03                                                      03/14/2013  21:36:13  PAGE 35


  D:0013H         SYMBOL        speed
  C:217BH         LINE#         1091
  C:217FH         LINE#         1092
  C:217FH         LINE#         1093
  C:2183H         LINE#         1095
  C:2185H         LINE#         1096
  C:2186H         LINE#         1097
  C:2187H         LINE#         1098
  C:2188H         LINE#         1099
  C:2189H         LINE#         1101
  C:218CH         LINE#         1102
  C:218DH         LINE#         1103
  C:218EH         LINE#         1104
  C:218FH         LINE#         1105
  C:2190H         LINE#         1107
  C:2192H         LINE#         1108
  C:2193H         LINE#         1109
  C:2194H         LINE#         1110
  C:2195H         LINE#         1111
  C:2196H         LINE#         1113
  C:219FH         LINE#         1114
  C:21AAH         LINE#         1115
  C:21B3H         LINE#         1116
  C:21BAH         LINE#         1118
  C:21BEH         LINE#         1119
  -------         ENDPROC       _HL1606_LED4_4_1
  -------         PROC          HL1606_LED4_4_2
  C:1DABH         LINE#         1121
  C:1DABH         LINE#         1122
  C:1DABH         LINE#         1123
  C:1DB2H         LINE#         1125
  C:1DB2H         LINE#         1126
  C:1DBFH         LINE#         1127
  C:1DC7H         LINE#         1129
  C:1DCDH         LINE#         1130
  C:1DCFH         LINE#         1131
  C:1DD1H         LINE#         1132
  C:1DD3H         LINE#         1133
  C:1DD3H         LINE#         1136
  C:1DE1H         LINE#         1137
  C:1DE7H         LINE#         1138
  C:1DEBH         LINE#         1139
  C:1DECH         LINE#         1141
  C:1DF0H         LINE#         1142
  C:1DF6H         LINE#         1143
  C:1DF6H         LINE#         1144
  -------         ENDPROC       HL1606_LED4_4_2
  -------         PROC          HL1606_LED4_4_3
  C:2726H         LINE#         1146
  C:2726H         LINE#         1147
  C:2726H         LINE#         1148
  C:272CH         LINE#         1150
  C:272CH         LINE#         1151
  C:2739H         LINE#         1152
  C:2741H         LINE#         1154
  C:2742H         LINE#         1155
  C:2746H         LINE#         1156
BL51 BANKED LINKER/LOCATER V5.03                                                      03/14/2013  21:36:13  PAGE 36


  C:2746H         LINE#         1157
  -------         ENDPROC       HL1606_LED4_4_3
  -------         PROC          HL1606_LED4_4_4
  C:2282H         LINE#         1159
  C:2282H         LINE#         1160
  C:2282H         LINE#         1161
  C:2289H         LINE#         1163
  C:2289H         LINE#         1164
  C:2296H         LINE#         1165
  C:2298H         LINE#         1166
  C:2299H         LINE#         1167
  C:229AH         LINE#         1168
  C:229BH         LINE#         1169
  C:229CH         LINE#         1171
  C:22A1H         LINE#         1172
  C:22A2H         LINE#         1173
  C:22A3H         LINE#         1174
  C:22A4H         LINE#         1175
  C:22A5H         LINE#         1177
  C:22A7H         LINE#         1178
  C:22A8H         LINE#         1179
  C:22A9H         LINE#         1180
  C:22AAH         LINE#         1181
  C:22ABH         LINE#         1183
  C:22B3H         LINE#         1184
  C:22B9H         LINE#         1185
  C:22BDH         LINE#         1186
  C:22BEH         LINE#         1187
  C:22C2H         LINE#         1188
  C:22C2H         LINE#         1189
  -------         ENDPROC       HL1606_LED4_4_4
  -------         PROC          HL1606_LED4_4_5
  C:1F59H         LINE#         1191
  C:1F59H         LINE#         1192
  C:1F59H         LINE#         1193
  C:1F60H         LINE#         1195
  C:1F60H         LINE#         1196
  C:1F6DH         LINE#         1197
  C:1F75H         LINE#         1199
  C:1F7BH         LINE#         1200
  C:1F7DH         LINE#         1201
  C:1F7FH         LINE#         1202
  C:1F81H         LINE#         1203
  C:1F81H         LINE#         1206
  C:1F8FH         LINE#         1207
  C:1F95H         LINE#         1208
  C:1F99H         LINE#         1209
  C:1F9AH         LINE#         1211
  C:1F9EH         LINE#         1212
  C:1F9EH         LINE#         1213
  -------         ENDPROC       HL1606_LED4_4_5
  -------         PROC          HL1606_LED4_4_6
  C:2747H         LINE#         1215
  C:2747H         LINE#         1216
  C:2747H         LINE#         1217
  C:274DH         LINE#         1219
  C:274DH         LINE#         1220
BL51 BANKED LINKER/LOCATER V5.03                                                      03/14/2013  21:36:13  PAGE 37


  C:275AH         LINE#         1221
  C:2762H         LINE#         1223
  C:2763H         LINE#         1224
  C:2767H         LINE#         1225
  C:2767H         LINE#         1226
  -------         ENDPROC       HL1606_LED4_4_6
  -------         PROC          HL1606_LED4_4_ISEND
  C:28DFH         LINE#         1228
  C:28DFH         LINE#         1229
  C:28DFH         LINE#         1230
  C:28EAH         LINE#         1231
  -------         ENDPROC       HL1606_LED4_4_ISEND
  -------         ENDMOD        HL1606

  -------         MODULE        LEDMODE
  C:0000H         SYMBOL        _ICE_DUMMY_
  D:0090H         PUBLIC        P1
  D:00B0H         PUBLIC        P3
  X:0000H         SYMBOL        m_wLED1_DelayCounter
  C:2534H         SYMBOL        LED1_InitMode
  X:0002H         SYMBOL        m_wLED2_DelayCounter
  C:255BH         SYMBOL        LED2_InitMode
  X:0004H         SYMBOL        m_wLED3_DelayCounter
  C:2582H         SYMBOL        LED3_InitMode
  X:0006H         SYMBOL        m_wLED4_DelayCounter
  C:25A9H         SYMBOL        LED4_InitMode
  D:00A8H         PUBLIC        IE
  X:0008H         SYMBOL        m_byLED1_ModeIndex
  X:0009H         SYMBOL        m_byLED2_ModeIndex
  X:000AH         SYMBOL        m_byLED3_ModeIndex
  X:000BH         SYMBOL        m_wLED1_Offset
  X:000DH         SYMBOL        m_byLED4_ModeIndex
  X:000EH         SYMBOL        m_wLED2_Offset
  D:00B8H         PUBLIC        IP
  X:0010H         SYMBOL        m_wLED3_Offset
  X:0012H         SYMBOL        m_wLED4_Offset
  C:14DEH         SYMBOL        LED1_Run
  C:156DH         SYMBOL        LED2_Run
  C:15FCH         SYMBOL        LED3_Run
  C:289FH         SYMBOL        LED1_Mode1
  C:168BH         SYMBOL        LED4_Run
  C:28EBH         SYMBOL        LED2_Mode1
  C:003EH         SYMBOL        LED1_Mode2
  C:28F6H         SYMBOL        LED3_Mode1
  C:0261H         SYMBOL        LED2_Mode2
  C:1B2BH         SYMBOL        LED1_Mode3
  C:2901H         SYMBOL        LED4_Mode1
  C:0484H         SYMBOL        LED3_Mode2
  C:1B7FH         SYMBOL        LED2_Mode3
  C:17A6H         SYMBOL        LED1_Mode4
  C:06A7H         SYMBOL        LED4_Mode2
  C:1BD3H         SYMBOL        LED3_Mode3
  C:182EH         SYMBOL        LED2_Mode4
  C:1C27H         SYMBOL        LED4_Mode3
  C:18B6H         SYMBOL        LED3_Mode4
  C:193EH         SYMBOL        LED4_Mode4
  X:0014H         SYMBOL        m_byLED1_ModeCount
BL51 BANKED LINKER/LOCATER V5.03                                                      03/14/2013  21:36:13  PAGE 38


  X:0015H         SYMBOL        m_byLED2_ModeCount
  X:0016H         SYMBOL        m_byLED3_ModeCount
  B:0020H.0       SYMBOL        m_bLED1_Start
  X:0017H         SYMBOL        m_byLED4_ModeCount
  B:0020H.1       SYMBOL        m_bLED2_Start
  B:0020H.2       SYMBOL        m_bLED3_Start
  B:0020H.3       SYMBOL        m_bLED4_Start
  D:0098H         PUBLIC        SCON
  D:0088H         PUBLIC        TCON
  X:0018H         SYMBOL        m_byLED1_ModeType
  X:0019H         SYMBOL        m_byLED2_ModeType
  X:001AH         SYMBOL        m_byLED3_ModeType
  X:001BH         SYMBOL        m_byLED4_ModeType
  X:0100H         PUBLIC        g_byaByteCode1
  C:12CCH         PUBLIC        LED_Init
  X:0120H         PUBLIC        g_byaByteCode2
  X:0140H         PUBLIC        g_byaByteCode3
  X:0160H         PUBLIC        g_byaByteCode4
  C:1E3FH         PUBLIC        LED_1msProc
  X:001CH         PUBLIC        g_unCmdParam1
  D:00C8H         PUBLIC        T2CON
  X:0031H         PUBLIC        g_unCmdParam2
  X:0046H         PUBLIC        g_unCmdParam3
  X:005BH         PUBLIC        g_unCmdParam4
  C:11D7H         PUBLIC        LED_Run
  B:0020H.4       SYMBOL        m_bLED1_LightOrDim
  B:0020H.5       SYMBOL        m_bLED2_LightOrDim
  B:0020H.6       SYMBOL        m_bLED3_LightOrDim
  B:0020H.7       SYMBOL        m_bLED4_LightOrDim
  X:0070H         SYMBOL        LED1_Mode3_DimDelayCounter
  X:0071H         SYMBOL        LED2_Mode3_DimDelayCounter
  X:0072H         SYMBOL        LED3_Mode3_DimDelayCounter
  X:0073H         SYMBOL        LED4_Mode3_DimDelayCounter
  D:00D0H         PUBLIC        PSW
  -------         PROC          LED1_INITMODE
  C:2534H         LINE#         63
  C:2534H         LINE#         64
  C:2534H         LINE#         65
  C:2536H         LINE#         66
  C:253DH         LINE#         67
  C:253FH         LINE#         68
  C:254BH         LINE#         69
  C:254BH         LINE#         70
  C:254BH         LINE#         71
  C:254BH         LINE#         72
  C:254BH         LINE#         73
  C:254BH         LINE#         74
  C:254BH         LINE#         75
  C:255AH         LINE#         77
  C:255AH         LINE#         78
  C:255AH         LINE#         79
  C:255AH         LINE#         80
  C:255AH         LINE#         81
  -------         ENDPROC       LED1_INITMODE
  -------         PROC          LED2_INITMODE
  C:255BH         LINE#         83
  C:255BH         LINE#         84
BL51 BANKED LINKER/LOCATER V5.03                                                      03/14/2013  21:36:13  PAGE 39


  C:255BH         LINE#         85
  C:255DH         LINE#         86
  C:2564H         LINE#         87
  C:2566H         LINE#         88
  C:2572H         LINE#         89
  C:2572H         LINE#         90
  C:2572H         LINE#         91
  C:2572H         LINE#         92
  C:2572H         LINE#         93
  C:2572H         LINE#         94
  C:2572H         LINE#         95
  C:2581H         LINE#         97
  C:2581H         LINE#         98
  C:2581H         LINE#         99
  C:2581H         LINE#         100
  C:2581H         LINE#         101
  -------         ENDPROC       LED2_INITMODE
  -------         PROC          LED3_INITMODE
  C:2582H         LINE#         103
  C:2582H         LINE#         104
  C:2582H         LINE#         105
  C:2584H         LINE#         106
  C:258BH         LINE#         107
  C:258DH         LINE#         108
  C:2599H         LINE#         109
  C:2599H         LINE#         110
  C:2599H         LINE#         111
  C:2599H         LINE#         112
  C:2599H         LINE#         113
  C:2599H         LINE#         114
  C:2599H         LINE#         115
  C:25A8H         LINE#         117
  C:25A8H         LINE#         118
  C:25A8H         LINE#         119
  C:25A8H         LINE#         120
  C:25A8H         LINE#         121
  -------         ENDPROC       LED3_INITMODE
  -------         PROC          LED4_INITMODE
  C:25A9H         LINE#         123
  C:25A9H         LINE#         124
  C:25A9H         LINE#         125
  C:25ABH         LINE#         126
  C:25B2H         LINE#         127
  C:25B4H         LINE#         128
  C:25C0H         LINE#         129
  C:25C0H         LINE#         130
  C:25C0H         LINE#         131
  C:25C0H         LINE#         132
  C:25C0H         LINE#         133
  C:25C0H         LINE#         134
  C:25C0H         LINE#         135
  C:25CFH         LINE#         137
  C:25CFH         LINE#         138
  C:25CFH         LINE#         139
  C:25CFH         LINE#         140
  C:25CFH         LINE#         141
  -------         ENDPROC       LED4_INITMODE
BL51 BANKED LINKER/LOCATER V5.03                                                      03/14/2013  21:36:13  PAGE 40


  -------         PROC          LED1_MODE1
  C:289FH         LINE#         143
  C:289FH         LINE#         144
  C:289FH         LINE#         145
  C:28A2H         LINE#         146
  C:28AAH         LINE#         147
  C:28ACH         LINE#         148
  C:28ACH         LINE#         149
  -------         ENDPROC       LED1_MODE1
  -------         PROC          LED1_MODE2
  -------         DO            
  D:0007H         SYMBOL        tm
  D:000DH         SYMBOL        period
  -------         DO            
  D:000FH         SYMBOL        wCurrent
  -------         ENDDO         
  -------         ENDDO         
  C:003EH         LINE#         151
  C:003EH         LINE#         152
  C:003EH         LINE#         154
  C:0086H         LINE#         162
  C:0094H         LINE#         164
  C:0094H         LINE#         167
  C:009CH         LINE#         168
  C:00A2H         LINE#         170
  C:00A2H         LINE#         171
  C:00B8H         LINE#         172
  C:00C3H         LINE#         173
  C:00C5H         LINE#         174
  C:00C5H         LINE#         175
  C:00CBH         LINE#         176
  C:00E4H         LINE#         177
  C:012AH         LINE#         183
  C:012AH         LINE#         184
  C:012DH         LINE#         185
  C:016DH         LINE#         190
  C:016DH         LINE#         191
  C:0170H         LINE#         192
  C:01A7H         LINE#         196
  C:01A7H         LINE#         197
  C:01AAH         LINE#         198
  C:01D8H         LINE#         201
  C:01D8H         LINE#         202
  C:01DBH         LINE#         203
  C:01FFH         LINE#         205
  C:01FFH         LINE#         206
  C:0202H         LINE#         207
  C:021BH         LINE#         208
  C:021BH         LINE#         209
  C:021EH         LINE#         210
  C:022FH         LINE#         211
  C:0232H         LINE#         212
  C:0234H         LINE#         213
  C:023CH         LINE#         214
  C:023CH         LINE#         215
  C:023CH         LINE#         216
  C:024AH         LINE#         217
BL51 BANKED LINKER/LOCATER V5.03                                                      03/14/2013  21:36:13  PAGE 41


  C:0253H         LINE#         218
  C:0260H         LINE#         219
  C:0260H         LINE#         220
  C:0260H         LINE#         221
  -------         ENDPROC       LED1_MODE2
  -------         PROC          LED1_MODE3
  -------         DO            
  D:000DH         SYMBOL        color
  D:000EH         SYMBOL        freq
  -------         ENDDO         
  C:1B2BH         LINE#         223
  C:1B2BH         LINE#         224
  C:1B2BH         LINE#         225
  C:1B31H         LINE#         226
  C:1B35H         LINE#         228
  C:1B3BH         LINE#         229
  C:1B44H         LINE#         230
  C:1B47H         LINE#         231
  C:1B48H         LINE#         232
  C:1B4DH         LINE#         233
  C:1B60H         LINE#         234
  C:1B62H         LINE#         235
  C:1B63H         LINE#         236
  C:1B76H         LINE#         237
  C:1B78H         LINE#         238
  C:1B7EH         LINE#         239
  C:1B7EH         LINE#         240
  C:1B7EH         LINE#         241
  C:1B7EH         LINE#         242
  -------         ENDPROC       LED1_MODE3
  -------         PROC          LED1_MODE4
  -------         DO            
  D:0007H         SYMBOL        tm
  D:000DH         SYMBOL        color
  D:000EH         SYMBOL        gap
  D:000FH         SYMBOL        speed
  -------         ENDDO         
  C:17A6H         LINE#         244
  C:17A6H         LINE#         245
  C:17A6H         LINE#         247
  C:17ACH         LINE#         248
  C:17B0H         LINE#         249
  C:17B4H         LINE#         252
  C:17BCH         LINE#         253
  C:17BFH         LINE#         255
  C:17BFH         LINE#         256
  C:17D2H         LINE#         258
  C:17DCH         LINE#         259
  C:17DEH         LINE#         260
  C:17DEH         LINE#         261
  C:17E1H         LINE#         263
  C:17E7H         LINE#         264
  C:1807H         LINE#         266
  C:1807H         LINE#         267
  C:1807H         LINE#         269
  C:1815H         LINE#         270
  C:181EH         LINE#         271
BL51 BANKED LINKER/LOCATER V5.03                                                      03/14/2013  21:36:13  PAGE 42


  C:182DH         LINE#         272
  C:182DH         LINE#         273
  C:182DH         LINE#         274
  -------         ENDPROC       LED1_MODE4
  -------         PROC          LED2_MODE1
  C:28EBH         LINE#         276
  C:28EBH         LINE#         277
  C:28EBH         LINE#         278
  C:28EEH         LINE#         279
  C:28F3H         LINE#         280
  C:28F5H         LINE#         281
  C:28F5H         LINE#         282
  -------         ENDPROC       LED2_MODE1
  -------         PROC          LED2_MODE2
  -------         DO            
  D:0007H         SYMBOL        tm
  D:000DH         SYMBOL        period
  -------         DO            
  D:000FH         SYMBOL        wCurrent
  -------         ENDDO         
  -------         ENDDO         
  C:0261H         LINE#         284
  C:0261H         LINE#         285
  C:0261H         LINE#         287
  C:02A9H         LINE#         295
  C:02B7H         LINE#         297
  C:02B7H         LINE#         300
  C:02BFH         LINE#         301
  C:02C5H         LINE#         303
  C:02C5H         LINE#         304
  C:02DBH         LINE#         305
  C:02E6H         LINE#         306
  C:02E8H         LINE#         307
  C:02E8H         LINE#         308
  C:02EEH         LINE#         309
  C:0307H         LINE#         310
  C:034DH         LINE#         316
  C:034DH         LINE#         317
  C:0350H         LINE#         318
  C:0390H         LINE#         323
  C:0390H         LINE#         324
  C:0393H         LINE#         325
  C:03CAH         LINE#         329
  C:03CAH         LINE#         330
  C:03CDH         LINE#         331
  C:03FBH         LINE#         334
  C:03FBH         LINE#         335
  C:03FEH         LINE#         336
  C:0422H         LINE#         338
  C:0422H         LINE#         339
  C:0425H         LINE#         340
  C:043EH         LINE#         341
  C:043EH         LINE#         342
  C:0441H         LINE#         343
  C:0452H         LINE#         344
  C:0455H         LINE#         345
  C:0457H         LINE#         346
BL51 BANKED LINKER/LOCATER V5.03                                                      03/14/2013  21:36:13  PAGE 43


  C:045FH         LINE#         347
  C:045FH         LINE#         348
  C:045FH         LINE#         349
  C:046DH         LINE#         350
  C:0476H         LINE#         351
  C:0483H         LINE#         352
  C:0483H         LINE#         353
  C:0483H         LINE#         354
  -------         ENDPROC       LED2_MODE2
  -------         PROC          LED2_MODE3
  -------         DO            
  D:000DH         SYMBOL        color
  D:000EH         SYMBOL        freq
  -------         ENDDO         
  C:1B7FH         LINE#         356
  C:1B7FH         LINE#         357
  C:1B7FH         LINE#         358
  C:1B85H         LINE#         359
  C:1B89H         LINE#         361
  C:1B8FH         LINE#         362
  C:1B98H         LINE#         363
  C:1B9BH         LINE#         364
  C:1B9CH         LINE#         365
  C:1BA1H         LINE#         366
  C:1BB4H         LINE#         367
  C:1BB6H         LINE#         368
  C:1BB7H         LINE#         369
  C:1BCAH         LINE#         370
  C:1BCCH         LINE#         371
  C:1BD2H         LINE#         372
  C:1BD2H         LINE#         373
  C:1BD2H         LINE#         374
  C:1BD2H         LINE#         375
  -------         ENDPROC       LED2_MODE3
  -------         PROC          LED2_MODE4
  -------         DO            
  D:0007H         SYMBOL        tm
  D:000DH         SYMBOL        color
  D:000EH         SYMBOL        gap
  D:000FH         SYMBOL        speed
  -------         ENDDO         
  C:182EH         LINE#         377
  C:182EH         LINE#         378
  C:182EH         LINE#         380
  C:1834H         LINE#         381
  C:1838H         LINE#         382
  C:183CH         LINE#         385
  C:1844H         LINE#         386
  C:1847H         LINE#         388
  C:1847H         LINE#         389
  C:185AH         LINE#         391
  C:1864H         LINE#         392
  C:1866H         LINE#         393
  C:1866H         LINE#         394
  C:1869H         LINE#         396
  C:186FH         LINE#         397
  C:188FH         LINE#         399
BL51 BANKED LINKER/LOCATER V5.03                                                      03/14/2013  21:36:13  PAGE 44


  C:188FH         LINE#         400
  C:188FH         LINE#         402
  C:189DH         LINE#         403
  C:18A6H         LINE#         404
  C:18B5H         LINE#         405
  C:18B5H         LINE#         406
  C:18B5H         LINE#         407
  -------         ENDPROC       LED2_MODE4
  -------         PROC          LED3_MODE1
  C:28F6H         LINE#         409
  C:28F6H         LINE#         410
  C:28F6H         LINE#         411
  C:28F9H         LINE#         412
  C:28FEH         LINE#         413
  C:2900H         LINE#         414
  C:2900H         LINE#         415
  -------         ENDPROC       LED3_MODE1
  -------         PROC          LED3_MODE2
  -------         DO            
  D:0007H         SYMBOL        tm
  D:000DH         SYMBOL        period
  -------         DO            
  D:000FH         SYMBOL        wCurrent
  -------         ENDDO         
  -------         ENDDO         
  C:0484H         LINE#         417
  C:0484H         LINE#         418
  C:0484H         LINE#         420
  C:04CCH         LINE#         428
  C:04DAH         LINE#         430
  C:04DAH         LINE#         433
  C:04E2H         LINE#         434
  C:04E8H         LINE#         436
  C:04E8H         LINE#         437
  C:04FEH         LINE#         438
  C:0509H         LINE#         439
  C:050BH         LINE#         440
  C:050BH         LINE#         441
  C:0511H         LINE#         442
  C:052AH         LINE#         443
  C:0570H         LINE#         449
  C:0570H         LINE#         450
  C:0573H         LINE#         451
  C:05B3H         LINE#         456
  C:05B3H         LINE#         457
  C:05B6H         LINE#         458
  C:05EDH         LINE#         462
  C:05EDH         LINE#         463
  C:05F0H         LINE#         464
  C:061EH         LINE#         467
  C:061EH         LINE#         468
  C:0621H         LINE#         469
  C:0645H         LINE#         471
  C:0645H         LINE#         472
  C:0648H         LINE#         473
  C:0661H         LINE#         474
  C:0661H         LINE#         475
BL51 BANKED LINKER/LOCATER V5.03                                                      03/14/2013  21:36:13  PAGE 45


  C:0664H         LINE#         476
  C:0675H         LINE#         477
  C:0678H         LINE#         478
  C:067AH         LINE#         479
  C:0682H         LINE#         480
  C:0682H         LINE#         481
  C:0682H         LINE#         482
  C:0690H         LINE#         483
  C:0699H         LINE#         484
  C:06A6H         LINE#         485
  C:06A6H         LINE#         486
  C:06A6H         LINE#         487
  -------         ENDPROC       LED3_MODE2
  -------         PROC          LED3_MODE3
  -------         DO            
  D:000DH         SYMBOL        color
  D:000EH         SYMBOL        freq
  -------         ENDDO         
  C:1BD3H         LINE#         489
  C:1BD3H         LINE#         490
  C:1BD3H         LINE#         491
  C:1BD9H         LINE#         492
  C:1BDDH         LINE#         494
  C:1BE3H         LINE#         495
  C:1BECH         LINE#         496
  C:1BEFH         LINE#         497
  C:1BF0H         LINE#         498
  C:1BF5H         LINE#         499
  C:1C08H         LINE#         500
  C:1C0AH         LINE#         501
  C:1C0BH         LINE#         502
  C:1C1EH         LINE#         503
  C:1C20H         LINE#         504
  C:1C26H         LINE#         505
  C:1C26H         LINE#         506
  C:1C26H         LINE#         507
  C:1C26H         LINE#         508
  -------         ENDPROC       LED3_MODE3
  -------         PROC          LED3_MODE4
  -------         DO            
  D:0007H         SYMBOL        tm
  D:000DH         SYMBOL        color
  D:000EH         SYMBOL        gap
  D:000FH         SYMBOL        speed
  -------         ENDDO         
  C:18B6H         LINE#         510
  C:18B6H         LINE#         511
  C:18B6H         LINE#         513
  C:18BCH         LINE#         514
  C:18C0H         LINE#         515
  C:18C4H         LINE#         518
  C:18CCH         LINE#         519
  C:18CFH         LINE#         521
  C:18CFH         LINE#         522
  C:18E2H         LINE#         524
  C:18ECH         LINE#         525
  C:18EEH         LINE#         526
BL51 BANKED LINKER/LOCATER V5.03                                                      03/14/2013  21:36:13  PAGE 46


  C:18EEH         LINE#         527
  C:18F1H         LINE#         529
  C:18F7H         LINE#         530
  C:1917H         LINE#         532
  C:1917H         LINE#         533
  C:1917H         LINE#         535
  C:1925H         LINE#         536
  C:192EH         LINE#         537
  C:193DH         LINE#         538
  C:193DH         LINE#         539
  C:193DH         LINE#         540
  -------         ENDPROC       LED3_MODE4
  -------         PROC          LED4_MODE1
  C:2901H         LINE#         542
  C:2901H         LINE#         543
  C:2901H         LINE#         544
  C:2904H         LINE#         545
  C:2909H         LINE#         546
  C:290BH         LINE#         547
  C:290BH         LINE#         548
  -------         ENDPROC       LED4_MODE1
  -------         PROC          LED4_MODE2
  -------         DO            
  D:0007H         SYMBOL        tm
  D:000DH         SYMBOL        period
  -------         DO            
  D:000FH         SYMBOL        wCurrent
  -------         ENDDO         
  -------         ENDDO         
  C:06A7H         LINE#         550
  C:06A7H         LINE#         551
  C:06A7H         LINE#         553
  C:06EFH         LINE#         561
  C:06FDH         LINE#         563
  C:06FDH         LINE#         566
  C:0705H         LINE#         567
  C:070BH         LINE#         569
  C:070BH         LINE#         570
  C:0721H         LINE#         571
  C:072CH         LINE#         572
  C:072EH         LINE#         573
  C:072EH         LINE#         574
  C:0734H         LINE#         575
  C:074DH         LINE#         576
  C:0793H         LINE#         582
  C:0793H         LINE#         583
  C:0796H         LINE#         584
  C:07D6H         LINE#         589
  C:07D6H         LINE#         590
  C:07D9H         LINE#         591
  C:0810H         LINE#         595
  C:0810H         LINE#         596
  C:0813H         LINE#         597
  C:0841H         LINE#         600
  C:0841H         LINE#         601
  C:0844H         LINE#         602
  C:0868H         LINE#         604
BL51 BANKED LINKER/LOCATER V5.03                                                      03/14/2013  21:36:13  PAGE 47


  C:0868H         LINE#         605
  C:086BH         LINE#         606
  C:0884H         LINE#         607
  C:0884H         LINE#         608
  C:0887H         LINE#         609
  C:0898H         LINE#         610
  C:089BH         LINE#         611
  C:089DH         LINE#         612
  C:08A5H         LINE#         613
  C:08A5H         LINE#         614
  C:08A5H         LINE#         615
  C:08B3H         LINE#         616
  C:08BCH         LINE#         617
  C:08C9H         LINE#         618
  C:08C9H         LINE#         619
  C:08C9H         LINE#         620
  -------         ENDPROC       LED4_MODE2
  -------         PROC          LED4_MODE3
  -------         DO            
  D:000DH         SYMBOL        color
  D:000EH         SYMBOL        freq
  -------         ENDDO         
  C:1C27H         LINE#         622
  C:1C27H         LINE#         623
  C:1C27H         LINE#         624
  C:1C2DH         LINE#         625
  C:1C31H         LINE#         627
  C:1C37H         LINE#         628
  C:1C40H         LINE#         629
  C:1C43H         LINE#         630
  C:1C44H         LINE#         631
  C:1C49H         LINE#         632
  C:1C5CH         LINE#         633
  C:1C5EH         LINE#         634
  C:1C5FH         LINE#         635
  C:1C72H         LINE#         636
  C:1C74H         LINE#         637
  C:1C7AH         LINE#         638
  C:1C7AH         LINE#         639
  C:1C7AH         LINE#         640
  C:1C7AH         LINE#         641
  -------         ENDPROC       LED4_MODE3
  -------         PROC          LED4_MODE4
  -------         DO            
  D:0007H         SYMBOL        tm
  D:000DH         SYMBOL        color
  D:000EH         SYMBOL        gap
  D:000FH         SYMBOL        speed
  -------         ENDDO         
  C:193EH         LINE#         643
  C:193EH         LINE#         644
  C:193EH         LINE#         646
  C:1944H         LINE#         647
  C:1948H         LINE#         648
  C:194CH         LINE#         651
  C:1954H         LINE#         652
  C:1957H         LINE#         654
BL51 BANKED LINKER/LOCATER V5.03                                                      03/14/2013  21:36:13  PAGE 48


  C:1957H         LINE#         655
  C:196AH         LINE#         657
  C:1974H         LINE#         658
  C:1976H         LINE#         659
  C:1976H         LINE#         660
  C:1979H         LINE#         662
  C:197FH         LINE#         663
  C:199FH         LINE#         665
  C:199FH         LINE#         666
  C:199FH         LINE#         668
  C:19ADH         LINE#         669
  C:19B6H         LINE#         670
  C:19C5H         LINE#         671
  C:19C5H         LINE#         672
  C:19C5H         LINE#         673
  -------         ENDPROC       LED4_MODE4
  -------         PROC          LED1_RUN
  -------         DO            
  D:0009H         SYMBOL        wDelayTime
  -------         ENDDO         
  C:14DEH         LINE#         675
  C:14DEH         LINE#         676
  C:14DEH         LINE#         678
  C:14F0H         LINE#         679
  C:14F0H         LINE#         680
  C:14F3H         LINE#         681
  C:14F6H         LINE#         682
  C:14F8H         LINE#         683
  C:14F8H         LINE#         684
  C:14FBH         LINE#         685
  C:14FEH         LINE#         686
  C:1500H         LINE#         687
  C:1500H         LINE#         688
  C:1503H         LINE#         689
  C:1506H         LINE#         690
  C:1508H         LINE#         691
  C:1508H         LINE#         692
  C:150BH         LINE#         693
  C:151CH         LINE#         694
  C:151CH         LINE#         695
  C:151CH         LINE#         696
  C:151CH         LINE#         699
  C:152FH         LINE#         700
  C:153DH         LINE#         701
  C:1540H         LINE#         702
  C:1540H         LINE#         703
  C:1559H         LINE#         704
  C:1567H         LINE#         705
  C:156AH         LINE#         706
  C:156AH         LINE#         707
  C:156CH         LINE#         708
  -------         ENDPROC       LED1_RUN
  -------         PROC          LED2_RUN
  -------         DO            
  D:0009H         SYMBOL        wDelayTime
  -------         ENDDO         
  C:156DH         LINE#         710
BL51 BANKED LINKER/LOCATER V5.03                                                      03/14/2013  21:36:13  PAGE 49


  C:156DH         LINE#         711
  C:156DH         LINE#         713
  C:157FH         LINE#         714
  C:157FH         LINE#         715
  C:1582H         LINE#         716
  C:1585H         LINE#         717
  C:1587H         LINE#         718
  C:1587H         LINE#         719
  C:158AH         LINE#         720
  C:158DH         LINE#         721
  C:158FH         LINE#         722
  C:158FH         LINE#         723
  C:1592H         LINE#         724
  C:1595H         LINE#         725
  C:1597H         LINE#         726
  C:1597H         LINE#         727
  C:159AH         LINE#         728
  C:15ABH         LINE#         729
  C:15ABH         LINE#         730
  C:15ABH         LINE#         731
  C:15ABH         LINE#         734
  C:15BEH         LINE#         735
  C:15CCH         LINE#         736
  C:15CFH         LINE#         737
  C:15CFH         LINE#         738
  C:15E8H         LINE#         739
  C:15F6H         LINE#         740
  C:15F9H         LINE#         741
  C:15F9H         LINE#         742
  C:15FBH         LINE#         743
  -------         ENDPROC       LED2_RUN
  -------         PROC          LED3_RUN
  -------         DO            
  D:0009H         SYMBOL        wDelayTime
  -------         ENDDO         
  C:15FCH         LINE#         745
  C:15FCH         LINE#         746
  C:15FCH         LINE#         748
  C:160EH         LINE#         749
  C:160EH         LINE#         750
  C:1611H         LINE#         751
  C:1614H         LINE#         752
  C:1616H         LINE#         753
  C:1616H         LINE#         754
  C:1619H         LINE#         755
  C:161CH         LINE#         756
  C:161EH         LINE#         757
  C:161EH         LINE#         758
  C:1621H         LINE#         759
  C:1624H         LINE#         760
  C:1626H         LINE#         761
  C:1626H         LINE#         762
  C:1629H         LINE#         763
  C:163AH         LINE#         764
  C:163AH         LINE#         765
  C:163AH         LINE#         766
  C:163AH         LINE#         769
BL51 BANKED LINKER/LOCATER V5.03                                                      03/14/2013  21:36:13  PAGE 50


  C:164DH         LINE#         770
  C:165BH         LINE#         771
  C:165EH         LINE#         772
  C:165EH         LINE#         773
  C:1677H         LINE#         774
  C:1685H         LINE#         775
  C:1688H         LINE#         776
  C:1688H         LINE#         777
  C:168AH         LINE#         778
  -------         ENDPROC       LED3_RUN
  -------         PROC          LED4_RUN
  -------         DO            
  D:0009H         SYMBOL        wDelayTime
  -------         ENDDO         
  C:168BH         LINE#         780
  C:168BH         LINE#         781
  C:168BH         LINE#         783
  C:169DH         LINE#         784
  C:169DH         LINE#         785
  C:16A0H         LINE#         786
  C:16A3H         LINE#         787
  C:16A5H         LINE#         788
  C:16A5H         LINE#         789
  C:16A8H         LINE#         790
  C:16ABH         LINE#         791
  C:16ADH         LINE#         792
  C:16ADH         LINE#         793
  C:16B0H         LINE#         794
  C:16B3H         LINE#         795
  C:16B5H         LINE#         796
  C:16B5H         LINE#         797
  C:16B8H         LINE#         798
  C:16C9H         LINE#         799
  C:16C9H         LINE#         800
  C:16C9H         LINE#         801
  C:16C9H         LINE#         804
  C:16DCH         LINE#         805
  C:16EAH         LINE#         806
  C:16EDH         LINE#         807
  C:16EDH         LINE#         808
  C:1706H         LINE#         809
  C:1714H         LINE#         810
  C:1717H         LINE#         811
  C:1717H         LINE#         812
  C:1719H         LINE#         813
  -------         ENDPROC       LED4_RUN
  -------         PROC          LED_INIT
  C:12CCH         LINE#         815
  C:12CCH         LINE#         816
  C:12CCH         LINE#         817
  C:12DAH         LINE#         818
  C:12E8H         LINE#         819
  C:12F6H         LINE#         820
  C:1304H         LINE#         821
  C:1309H         LINE#         822
  C:130BH         LINE#         823
  C:130DH         LINE#         824
BL51 BANKED LINKER/LOCATER V5.03                                                      03/14/2013  21:36:13  PAGE 51


  C:1311H         LINE#         825
  C:1329H         LINE#         826
  C:1345H         LINE#         827
  C:1361H         LINE#         828
  C:137DH         LINE#         830
  C:1380H         LINE#         831
  C:1383H         LINE#         832
  C:1386H         LINE#         833
  -------         ENDPROC       LED_INIT
  -------         PROC          LED_RUN
  -------         DO            
  D:0008H         SYMBOL        byModeEnd
  -------         ENDDO         
  C:11D7H         LINE#         836
  C:11D7H         LINE#         837
  C:11D7H         LINE#         840
  C:11DCH         LINE#         841
  C:11E0H         LINE#         842
  C:11E6H         LINE#         843
  C:11F3H         LINE#         844
  C:11F5H         LINE#         845
  C:11F5H         LINE#         846
  C:1211H         LINE#         847
  C:1214H         LINE#         848
  C:1214H         LINE#         850
  C:1219H         LINE#         851
  C:121DH         LINE#         852
  C:1223H         LINE#         853
  C:1230H         LINE#         854
  C:1232H         LINE#         855
  C:1232H         LINE#         856
  C:124EH         LINE#         857
  C:1251H         LINE#         858
  C:1251H         LINE#         860
  C:1256H         LINE#         861
  C:125AH         LINE#         862
  C:1260H         LINE#         863
  C:126DH         LINE#         864
  C:126FH         LINE#         865
  C:126FH         LINE#         866
  C:128BH         LINE#         867
  C:128EH         LINE#         868
  C:128EH         LINE#         870
  C:1293H         LINE#         871
  C:1297H         LINE#         872
  C:129DH         LINE#         873
  C:12AAH         LINE#         874
  C:12ACH         LINE#         875
  C:12ACH         LINE#         876
  C:12C8H         LINE#         877
  C:12CBH         LINE#         878
  C:12CBH         LINE#         879
  -------         ENDPROC       LED_RUN
  -------         PROC          LED_1MSPROC
  C:1E3FH         LINE#         881
  C:1E3FH         LINE#         882
  C:1E3FH         LINE#         884
BL51 BANKED LINKER/LOCATER V5.03                                                      03/14/2013  21:36:13  PAGE 52


  C:1E42H         LINE#         885
  C:1E45H         LINE#         886
  C:1E48H         LINE#         887
  C:1E4BH         LINE#         890
  C:1E4EH         LINE#         891
  C:1E51H         LINE#         892
  C:1E54H         LINE#         893
  C:1E57H         LINE#         894
  C:1E5AH         LINE#         895
  C:1E5DH         LINE#         896
  C:1E60H         LINE#         897
  C:1E63H         LINE#         898
  C:1E66H         LINE#         899
  C:1E69H         LINE#         900
  C:1E6CH         LINE#         901
  C:1E6FH         LINE#         902
  C:1E72H         LINE#         903
  C:1E75H         LINE#         904
  C:1E78H         LINE#         905
  C:1E7BH         LINE#         906
  C:1E7EH         LINE#         907
  C:1E81H         LINE#         908
  C:1E84H         LINE#         909
  -------         ENDPROC       LED_1MSPROC
  -------         ENDMOD        LEDMODE

  -------         MODULE        MAIN
  C:0000H         SYMBOL        _ICE_DUMMY_
  D:0080H         PUBLIC        P0
  C:003BH         PUBLIC        reserve
  D:0090H         PUBLIC        P1
  D:00B0H         PUBLIC        P3
  B:00A8H.7       PUBLIC        EA
  D:001BH         SYMBOL        begin
  C:1439H         PUBLIC        UART_SER
  D:00A8H         PUBLIC        IE
  B:00A8H.4       PUBLIC        ES
  D:00B8H         PUBLIC        IP
  B:0098H.0       PUBLIC        RI
  B:0098H.1       PUBLIC        TI
  C:1A2AH         PUBLIC        main
  C:28ADH         PUBLIC        Init_Timer0
  B:0021H.0       SYMBOL        g_bTimerFlag
  B:0021H.1       SYMBOL        g_bAddrMode
  D:0099H         PUBLIC        SBUF
  D:0098H         PUBLIC        SCON
  D:0089H         PUBLIC        TMOD
  D:0088H         PUBLIC        TCON
  D:001DH         SYMBOL        m_byCount
  D:001EH         PUBLIC        temp
  B:00A8H.1       PUBLIC        ET0
  B:00A8H.3       PUBLIC        ET1
  D:008CH         PUBLIC        TH0
  D:008DH         PUBLIC        TH1
  D:008AH         PUBLIC        TL0
  B:0098H.5       PUBLIC        SM2
  C:0026H         PUBLIC        InitUART
BL51 BANKED LINKER/LOCATER V5.03                                                      03/14/2013  21:36:13  PAGE 53


  B:0088H.4       PUBLIC        TR0
  B:0088H.6       PUBLIC        TR1
  C:290CH         PUBLIC        Timer0_isr
  D:00C8H         PUBLIC        T2CON
  D:00D0H         PUBLIC        PSW
  D:001FH         SYMBOL        g_by100msCounter
  -------         PROC          INITUART
  C:0026H         LINE#         37
  C:0026H         LINE#         38
  C:0026H         LINE#         39
  C:0029H         LINE#         40
  C:002CH         LINE#         41
  C:002EH         LINE#         42
  C:0031H         LINE#         43
  C:0033H         LINE#         44
  C:0035H         LINE#         46
  -------         ENDPROC       INITUART
  -------         PROC          INIT_TIMER0
  C:28ADH         LINE#         48
  C:28ADH         LINE#         49
  C:28ADH         LINE#         50
  C:28B0H         LINE#         51
  C:28B2H         LINE#         52
  C:28B4H         LINE#         53
  C:28B6H         LINE#         54
  C:28B8H         LINE#         55
  C:28BAH         LINE#         56
  -------         ENDPROC       INIT_TIMER0
  -------         PROC          UART_SER
  -------         DO            
  D:0007H         SYMBOL        bySubAddr
  D:0006H         SYMBOL        it
  -------         ENDDO         
  C:1439H         LINE#         58
  C:1448H         LINE#         60
  C:144DH         LINE#         63
  C:1450H         LINE#         64
  C:1452H         LINE#         65
  C:1452H         LINE#         67
  C:1455H         LINE#         68
  C:1457H         LINE#         69
  C:1459H         LINE#         71
  C:145CH         LINE#         72
  C:1460H         LINE#         73
  C:1462H         LINE#         74
  C:1464H         LINE#         75
  C:1466H         LINE#         77
  C:1466H         LINE#         79
  C:146DH         LINE#         80
  C:147AH         LINE#         81
  C:147AH         LINE#         82
  C:1487H         LINE#         83
  C:1494H         LINE#         84
  C:1494H         LINE#         85
  C:14A1H         LINE#         86
  C:14AEH         LINE#         87
  C:14AEH         LINE#         88
BL51 BANKED LINKER/LOCATER V5.03                                                      03/14/2013  21:36:13  PAGE 54


  C:14BBH         LINE#         89
  C:14C8H         LINE#         90
  C:14C8H         LINE#         91
  C:14CAH         LINE#         92
  C:14CFH         LINE#         94
  C:14D1H         LINE#         95
  C:14D1H         LINE#         96
  C:14D1H         LINE#         97
  -------         ENDPROC       UART_SER
  -------         PROC          TIMER0_ISR
  C:290CH         LINE#         102
  C:290CH         LINE#         104
  C:290FH         LINE#         105
  C:2912H         LINE#         106
  C:2914H         LINE#         107
  -------         ENDPROC       TIMER0_ISR
  -------         PROC          MAIN
  C:1A2AH         LINE#         112
  C:1A2AH         LINE#         113
  C:1A2AH         LINE#         114
  C:1A2DH         LINE#         115
  C:1A30H         LINE#         116
  C:1A32H         LINE#         122
  C:1A39H         LINE#         123
  C:1A3EH         LINE#         124
  C:1A43H         LINE#         125
  C:1A48H         LINE#         126
  C:1A4DH         LINE#         127
  C:1A4EH         LINE#         129
  C:1A50H         LINE#         131
  C:1A55H         LINE#         132
  C:1A5AH         LINE#         133
  C:1A5FH         LINE#         134
  C:1A64H         LINE#         135
  C:1A67H         LINE#         136
  C:1A6AH         LINE#         137
  C:1A6AH         LINE#         138
  C:1A6DH         LINE#         139
  C:1A6FH         LINE#         141
  C:1A71H         LINE#         142
  C:1A76H         LINE#         143
  C:1A79H         LINE#         144
  C:1A7CH         LINE#         145
  C:1A7CH         LINE#         147
  C:1A7FH         LINE#         148
  C:1A7FH         LINE#         149
  -------         ENDPROC       MAIN
  -------         ENDMOD        MAIN

  -------         MODULE        ?C?CLDPTR
  C:0ACAH         PUBLIC        ?C?CLDPTR
  -------         ENDMOD        ?C?CLDPTR

  -------         MODULE        ?C?CLDOPTR
  C:0AE3H         PUBLIC        ?C?CLDOPTR
  -------         ENDMOD        ?C?CLDOPTR

BL51 BANKED LINKER/LOCATER V5.03                                                      03/14/2013  21:36:13  PAGE 55


  -------         MODULE        ?C?CSTPTR
  C:0B10H         PUBLIC        ?C?CSTPTR
  -------         ENDMOD        ?C?CSTPTR

  -------         MODULE        ?C?CSTOPTR
  C:0B22H         PUBLIC        ?C?CSTOPTR
  -------         ENDMOD        ?C?CSTOPTR

  -------         MODULE        ?C?UIDIV
  C:0B44H         PUBLIC        ?C?UIDIV
  -------         ENDMOD        ?C?UIDIV

  -------         MODULE        ?C?IILDPTR
  C:0B99H         PUBLIC        ?C?IILDPTR
  -------         ENDMOD        ?C?IILDPTR

  -------         MODULE        ?C?IILDOPTR
  C:0BD1H         PUBLIC        ?C?IILDOPTR
  -------         ENDMOD        ?C?IILDOPTR

  -------         MODULE        ?C?ISTPTR
  C:0C1EH         PUBLIC        ?C?ISTPTR
  -------         ENDMOD        ?C?ISTPTR

  -------         MODULE        ?C?ISTOPTR
  C:0C3DH         PUBLIC        ?C?ISTOPTR
  -------         ENDMOD        ?C?ISTOPTR

  -------         MODULE        ?C?ULCMP
  C:0C6AH         PUBLIC        ?C?ULCMP
  -------         ENDMOD        ?C?ULCMP

  -------         MODULE        ?C?IILDX
  C:0C7BH         PUBLIC        ?C?IILDX
  -------         ENDMOD        ?C?IILDX

Program Size: data=102.2 xdata=256 code=10510
LINK/LOCATE RUN COMPLETE.  0 WARNING(S),  0 ERROR(S)
