:10030F00FFFFFFFFFFFFFFFFFFFFFFFFFFFFFFFFEE
:10031F0000102030405060708090A0B0C0D0E0F04E
:0F032F00A8AAA8AAACAE204F4B20204552200010
:03001900DFFE22E5
:10002600AE07AF061EEF600C7FF51200197FF512C2
:05003600001980EE221C
:10000300D2A100D2A00000000000C2A100000000A5
:0600130000C2A000002263
:10039F00C2A100D2A00000000000D2A10000000006
:0103AF00222B
:1002D300E4FEEFA806088002C333D8FC30E704D25B
:1002E300A18002C2A100D2A00000000000C2A00EA3
:1002F300BE08DF0000D2A10000D2A000000030A1A0
:0B03030004C2008002D200C2A0000073
:01030E0022CC
:10036900E4FFD2A1FE00C2A00000000000D2A0005C
:1003790000EF25E0FF30A1010F00000EBE08E6C224
:03038900A00000D1
:01038C00224E
:1003B000C2A1000000D2A00000000000C2A0000006
:0103C000221A
:1003C100D2A1000000D2A00000000000C2A00000E5
:0103D1002209
:0802910090031F93FD750F108F
:02029900AE07AE
:10029B001200031202D3200002C322AF051202D3B5
:1002AB00200002C322E4FDEDC3950F501612033E4E
:1002BB00FF1202D3200002C322740129F9E43AFA97
:0702CB000D80E412039FD334
:0102D2002209
:070237007A00792175171010
:02023E00AC070B
:100240001200031202D3200002C322AF051202D310
:10025000200002C322120003EC04FF1202D320008C
:1002600002C322E4FDE51714FFEDC39F50141203EF
:1002700069EF1203571203B0740129F9E43AFA0D39
:1002800080E3120369EF1203571203C112039FD3D5
:01029000224B
:0E03D200759850438920758DFDD28ED2AF22D2
:10038D00759890C29D438920758DFDD28ED2AFC2D6
:02039D00AC2290
:0300230002003E9A
:10003E00C0E0C083C082C0D075D000C000C001C077
:0B004E0002C003C004C005C006C007CC
:10005900209803020183C298859909200153E50973
:1000690064CC7039F5087C00E50890033193FFEC06
:100079007BFF7A03790F1202917F0A1200260CBCCA
:1000890010E60508E508C3940440DB7C00EC900306
:100099003593F5993099FDC2990CBC04F0E50964D2
:1000A900AA6003020183D201F54BF54CF54D02011B
:1000B90083E54B6410702DE50964BB6008054DE5C7
:1000C9004D7002054CC201E54D454C6003020183A8
:1000D900FCEC90033593F5993099FDC2990CBC0459
:1000E900F00201837439254BF8A609054BE54B64E9
:1000F90010706AE54A90032F93FFE5497B007A0067
:1001090079391202917F05120026E54A90032F934F
:10011900FFE54990031F93FD1202377C0074212CDF
:10012900F8E6FF74392CF8E66F6008054DE54D7067
:1001390002054C0CBC10E67C0074392CF87600746E
:10014900212CF876000CBC10F00549E549B4100DD6
:10015900754900054AE54AB40203754A00D3E54DDD
:100169009400E54C940040127C04EC90033593F51F
:0A017900993099FDC2990CBC08F002
:10018300D007D006D005D004D003D002D001D000D0
:09019300D0D0D082D083D0E0323C
:10019C00D280E4F54AF549F54CF54D7FC81200269E
:1001AC00308008E4F54B1203D2800312038DD2ACDD
:1001BC002080687FC8120026E4F511D29B85119926
:1001CC002099030080FAC299E4F510E54A90032FB8
:1001DC0093FFE54990031F93FD7B001202370549FD
:1001EC00E549B4100DE4F549054AE54AB40203E4C7
:1001FC00F54AE4FFC29B74212FF8E6F59920990388
:10020C000080FAC2990FBF10EB0510E510C39408DB
:10021C0040B90511E511C3940440A0E54D454C705F
:0B022C00057590C080F575900680F00D
:030000000203E018
:0C03E000787FE4F6D8FD75814D02019C89
:10033E00BB010689828A83E0225002E722BBFE02BD
:09034E00E32289828A83E49322F0
:10035700BB010689828A83F0225002F722BBFE0185
:02036700F3227F
:00000001FF
