BL51 BANKED LINKER/LOCATER V5.03                                                        03/14/2013  21:13:14  PAGE 1


BL51 BANKED LINKER/LOCATER V5.03, INVOKED BY:
C:\KEIL\C51\BIN\BL51.EXE main.obj TO ControlerMain RAMSIZE (256)


MEMORY MODEL: SMALL


INPUT MODULES INCLUDED:
  main.obj (MAIN)
  C:\KEIL\C51\LIB\C51S.LIB (?C_STARTUP)
  C:\KEIL\C51\LIB\C51S.LIB (?C?CLDPTR)
  C:\KEIL\C51\LIB\C51S.LIB (?C?CSTPTR)


LINK MAP OF MODULE:  ControlerMain (MAIN)


            TYPE    BASE      LENGTH    RELOCATION   SEGMENT NAME
            -----------------------------------------------------

            * * * * * * *   D A T A   M E M O R Y   * * * * * * *
            REG     0000H     0008H     ABSOLUTE     "REG BANK 0"
            DATA    0008H     0010H     UNIT         _DATA_GROUP_
                    0018H     0008H                  *** GAP ***
            BIT     0020H.0   0000H.2   UNIT         ?BI?MAIN
                    0020H.2   0000H.6                *** GAP ***
            DATA    0021H     002DH     UNIT         ?DT?MAIN
            IDATA   004EH     0001H     UNIT         ?STACK

            * * * * * * *   C O D E   M E M O R Y   * * * * * * *
            CODE    0000H     0003H     ABSOLUTE     
            CODE    0003H     0016H     UNIT         ?PR?START_I2C?MAIN
            CODE    0019H     0003H     UNIT         ?PR?_DELAYUS2X?MAIN
                    001CH     0007H                  *** GAP ***
            CODE    0023H     0003H     ABSOLUTE     
            CODE    0026H     0015H     UNIT         ?PR?_DELAYMS?MAIN
            CODE    003BH     0003H     ABSOLUTE     
            CODE    003EH     015EH     UNIT         ?PR?UART_SER?MAIN
            CODE    019CH     009BH     UNIT         ?PR?MAIN?MAIN
            CODE    0237H     005AH     UNIT         ?PR?_IRCVSTR?MAIN
            CODE    0291H     0042H     UNIT         ?PR?_ISENDSTR?MAIN
            CODE    02D3H     003CH     UNIT         ?PR?_SENDBYTE?MAIN
            CODE    030FH     002FH     UNIT         ?CO?MAIN
            CODE    033EH     002BH     UNIT         ?C?LIB_CODE
            CODE    0369H     0024H     UNIT         ?PR?RCVBYTE?MAIN
            CODE    038DH     0012H     UNIT         ?PR?INITUART1?MAIN
            CODE    039FH     0011H     UNIT         ?PR?STOP_I2C?MAIN
            CODE    03B0H     0011H     UNIT         ?PR?ACK_I2C?MAIN
            CODE    03C1H     0011H     UNIT         ?PR?NOACK_I2C?MAIN
            CODE    03D2H     000EH     UNIT         ?PR?INITUART?MAIN
            CODE    03E0H     000CH     UNIT         ?C_C51STARTUP



OVERLAY MAP OF MODULE:   ControlerMain (MAIN)


SEGMENT                          DATA_GROUP 
BL51 BANKED LINKER/LOCATER V5.03                                                      03/14/2013  21:13:14  PAGE 2


  +--> CALLED SEGMENT          START    LENGTH
----------------------------------------------
?PR?UART_SER?MAIN              0008H    0002H
  +--> ?CO?MAIN
  +--> ?PR?_ISENDSTR?MAIN
  +--> ?PR?_DELAYMS?MAIN
  +--> ?PR?_IRCVSTR?MAIN

?PR?_ISENDSTR?MAIN             000AH    0006H
  +--> ?CO?MAIN
  +--> ?PR?START_I2C?MAIN
  +--> ?PR?_SENDBYTE?MAIN
  +--> ?PR?STOP_I2C?MAIN

?PR?_DELAYMS?MAIN              -----    -----
  +--> ?PR?_DELAYUS2X?MAIN

?PR?_IRCVSTR?MAIN              0012H    0006H
  +--> ?PR?START_I2C?MAIN
  +--> ?PR?_SENDBYTE?MAIN
  +--> ?PR?RCVBYTE?MAIN
  +--> ?PR?ACK_I2C?MAIN
  +--> ?PR?NOACK_I2C?MAIN
  +--> ?PR?STOP_I2C?MAIN

*** NEW ROOT ***************************************************

?C_C51STARTUP                  -----    -----
  +--> ?PR?MAIN?MAIN

?PR?MAIN?MAIN                  0010H    0002H
  +--> ?PR?_DELAYMS?MAIN
  +--> ?PR?INITUART?MAIN
  +--> ?PR?INITUART1?MAIN
  +--> ?CO?MAIN
  +--> ?PR?_IRCVSTR?MAIN



SYMBOL TABLE OF MODULE:  ControlerMain (MAIN)

  VALUE           TYPE          NAME
  ----------------------------------

  -------         MODULE        MAIN
  C:0000H         SYMBOL        _ICE_DUMMY_
  C:0335H         PUBLIC        m_chaReturn
  B:0020H.0       PUBLIC        m_bACK
  D:0080H         PUBLIC        P0
  C:003BH         PUBLIC        reserve
  D:0090H         PUBLIC        P1
  D:00A0H         PUBLIC        P2
  C:02D3H         PUBLIC        _SendByte
  D:00B0H         PUBLIC        P3
  C:038DH         PUBLIC        InitUART1
  B:00A8H.7       PUBLIC        EA
  C:003EH         PUBLIC        UART_SER
BL51 BANKED LINKER/LOCATER V5.03                                                      03/14/2013  21:13:14  PAGE 3


  D:0021H         PUBLIC        m_byaReadArray
  C:03C1H         PUBLIC        NoAck_I2c
  D:00A8H         PUBLIC        IE
  C:023EH         PUBLIC        _IRcvStr
  C:030FH         PUBLIC        Empyt
  C:0026H         PUBLIC        _DelayMs
  B:0020H.1       PUBLIC        m_bBegin
  B:00A8H.4       PUBLIC        ES
  D:00B8H         PUBLIC        IP
  D:0031H         PUBLIC        m_byaDebugShow
  B:0098H.0       PUBLIC        RI
  D:0039H         PUBLIC        m_byaWriteArray
  B:0098H.1       PUBLIC        TI
  C:019CH         PUBLIC        main
  D:0049H         PUBLIC        m_byIndexAB
  D:004AH         PUBLIC        m_byIndexAC
  D:0099H         PUBLIC        SBUF
  D:0098H         PUBLIC        SCON
  D:0089H         PUBLIC        TMOD
  D:0088H         PUBLIC        TCON
  D:004BH         PUBLIC        m_byCount
  C:031FH         PUBLIC        AddrB
  C:032FH         PUBLIC        AddrC
  C:0369H         PUBLIC        RcvByte
  C:0019H         PUBLIC        _DelayUs2x
  D:008DH         PUBLIC        TH1
  B:0098H.3       PUBLIC        TB8
  C:03B0H         PUBLIC        Ack_I2c
  C:0003H         PUBLIC        Start_I2c
  D:004CH         PUBLIC        m_wError
  B:0098H.5       PUBLIC        SM2
  C:03D2H         PUBLIC        InitUART
  B:0088H.6       PUBLIC        TR1
  B:0080H.0       PUBLIC        m_bIsUSB
  B:00A0H.1       PUBLIC        SDA
  B:00A0H.0       PUBLIC        SCL
  C:039FH         PUBLIC        Stop_I2c
  D:00C8H         PUBLIC        T2CON
  C:0299H         PUBLIC        _ISendStr
  C:0331H         PUBLIC        AddrC2
  D:00D0H         PUBLIC        PSW
  -------         PROC          _DELAYUS2X
  D:0007H         SYMBOL        t
  C:0019H         LINE#         46
  C:0019H         LINE#         47
  C:0019H         LINE#         48
  C:001BH         LINE#         49
  -------         ENDPROC       _DELAYUS2X
  -------         PROC          _DELAYMS
  D:0006H         SYMBOL        t
  C:0026H         LINE#         56
  C:0028H         LINE#         57
  C:0028H         LINE#         58
  C:002EH         LINE#         60
  C:0033H         LINE#         61
  C:0038H         LINE#         62
  C:003AH         LINE#         63
BL51 BANKED LINKER/LOCATER V5.03                                                      03/14/2013  21:13:14  PAGE 4


  -------         ENDPROC       _DELAYMS
  -------         PROC          START_I2C
  C:0003H         LINE#         68
  C:0003H         LINE#         69
  C:0003H         LINE#         70
  C:0005H         LINE#         71
  C:0006H         LINE#         72
  C:0008H         LINE#         73
  C:0009H         LINE#         74
  C:000AH         LINE#         75
  C:000BH         LINE#         76
  C:000CH         LINE#         77
  C:000DH         LINE#         78
  C:000FH         LINE#         79
  C:0010H         LINE#         80
  C:0011H         LINE#         81
  C:0012H         LINE#         82
  C:0013H         LINE#         83
  C:0014H         LINE#         84
  C:0016H         LINE#         85
  C:0017H         LINE#         86
  C:0018H         LINE#         87
  -------         ENDPROC       START_I2C
  -------         PROC          STOP_I2C
  C:039FH         LINE#         91
  C:039FH         LINE#         92
  C:039FH         LINE#         93
  C:03A1H         LINE#         94
  C:03A2H         LINE#         95
  C:03A4H         LINE#         96
  C:03A5H         LINE#         97
  C:03A6H         LINE#         98
  C:03A7H         LINE#         99
  C:03A8H         LINE#         100
  C:03A9H         LINE#         101
  C:03ABH         LINE#         102
  C:03ACH         LINE#         103
  C:03ADH         LINE#         104
  C:03AEH         LINE#         105
  C:03AFH         LINE#         106
  -------         ENDPROC       STOP_I2C
  -------         PROC          _SENDBYTE
  D:0007H         SYMBOL        c
  -------         DO            
  D:0006H         SYMBOL        BitCnt
  -------         ENDDO         
  C:02D3H         LINE#         115
  C:02D3H         LINE#         116
  C:02D3H         LINE#         119
  C:02D5H         LINE#         121
  C:02E2H         LINE#         122
  C:02E4H         LINE#         123
  C:02E6H         LINE#         124
  C:02E8H         LINE#         125
  C:02E8H         LINE#         126
  C:02E9H         LINE#         127
  C:02EBH         LINE#         128
BL51 BANKED LINKER/LOCATER V5.03                                                      03/14/2013  21:13:14  PAGE 5


  C:02ECH         LINE#         129
  C:02EDH         LINE#         130
  C:02EEH         LINE#         131
  C:02EFH         LINE#         132
  C:02F0H         LINE#         133
  C:02F2H         LINE#         134
  C:02F6H         LINE#         136
  C:02F7H         LINE#         137
  C:02F8H         LINE#         138
  C:02FAH         LINE#         139
  C:02FBH         LINE#         140
  C:02FCH         LINE#         141
  C:02FEH         LINE#         142
  C:02FFH         LINE#         143
  C:0300H         LINE#         144
  C:0301H         LINE#         147
  C:0304H         LINE#         148
  C:0306H         LINE#         149
  C:0308H         LINE#         150
  C:030AH         LINE#         151
  C:030AH         LINE#         152
  C:030CH         LINE#         153
  C:030DH         LINE#         154
  C:030EH         LINE#         155
  -------         ENDPROC       _SENDBYTE
  -------         PROC          RCVBYTE
  -------         DO            
  D:0007H         SYMBOL        retc
  D:0006H         SYMBOL        BitCnt
  -------         ENDDO         
  C:0369H         LINE#         163
  C:0369H         LINE#         164
  C:0369H         LINE#         167
  C:036BH         LINE#         168
  C:036DH         LINE#         169
  C:036EH         LINE#         170
  C:036FH         LINE#         171
  C:0371H         LINE#         172
  C:0372H         LINE#         173
  C:0373H         LINE#         174
  C:0374H         LINE#         175
  C:0375H         LINE#         176
  C:0376H         LINE#         177
  C:0378H         LINE#         178
  C:0379H         LINE#         179
  C:037AH         LINE#         180
  C:037EH         LINE#         181
  C:0381H         LINE#         183
  C:0382H         LINE#         184
  C:0382H         LINE#         185
  C:0383H         LINE#         186
  C:0384H         LINE#         187
  C:0388H         LINE#         188
  C:038AH         LINE#         189
  C:038BH         LINE#         190
  C:038CH         LINE#         191
  C:038CH         LINE#         192
BL51 BANKED LINKER/LOCATER V5.03                                                      03/14/2013  21:13:14  PAGE 6


  -------         ENDPROC       RCVBYTE
  -------         PROC          ACK_I2C
  C:03B0H         LINE#         199
  C:03B0H         LINE#         200
  C:03B0H         LINE#         201
  C:03B2H         LINE#         202
  C:03B3H         LINE#         203
  C:03B4H         LINE#         204
  C:03B5H         LINE#         205
  C:03B7H         LINE#         206
  C:03B8H         LINE#         207
  C:03B9H         LINE#         208
  C:03BAH         LINE#         209
  C:03BBH         LINE#         210
  C:03BCH         LINE#         211
  C:03BEH         LINE#         212
  C:03BFH         LINE#         213
  C:03C0H         LINE#         214
  -------         ENDPROC       ACK_I2C
  -------         PROC          NOACK_I2C
  C:03C1H         LINE#         220
  C:03C1H         LINE#         221
  C:03C1H         LINE#         222
  C:03C3H         LINE#         223
  C:03C4H         LINE#         224
  C:03C5H         LINE#         225
  C:03C6H         LINE#         226
  C:03C8H         LINE#         227
  C:03C9H         LINE#         228
  C:03CAH         LINE#         229
  C:03CBH         LINE#         230
  C:03CCH         LINE#         231
  C:03CDH         LINE#         232
  C:03CFH         LINE#         233
  C:03D0H         LINE#         234
  C:03D1H         LINE#         235
  -------         ENDPROC       NOACK_I2C
  -------         PROC          L?0108
  -------         ENDPROC       L?0108
  -------         PROC          _ISENDSTR
  D:0006H         SYMBOL        sla
  D:0005H         SYMBOL        suba
  D:0001H         SYMBOL        s
  D:000FH         SYMBOL        no
  -------         DO            
  D:0005H         SYMBOL        i
  -------         ENDDO         
  C:0299H         LINE#         245
  C:029BH         LINE#         246
  C:029BH         LINE#         248
  C:029EH         LINE#         249
  C:02A1H         LINE#         250
  C:02A4H         LINE#         251
  C:02A6H         LINE#         252
  C:02A6H         LINE#         254
  C:02ABH         LINE#         255
  C:02AEH         LINE#         256
BL51 BANKED LINKER/LOCATER V5.03                                                      03/14/2013  21:13:14  PAGE 7


  C:02B0H         LINE#         257
  C:02B0H         LINE#         259
  C:02B8H         LINE#         260
  C:02BFH         LINE#         261
  C:02C2H         LINE#         262
  C:02C4H         LINE#         263
  C:02C4H         LINE#         264
  C:02CBH         LINE#         265
  C:02CEH         LINE#         266
  C:02D1H         LINE#         267
  C:02D2H         LINE#         268
  -------         ENDPROC       _ISENDSTR
  -------         PROC          L?0109
  -------         ENDPROC       L?0109
  -------         PROC          _IRCVSTR
  D:0004H         SYMBOL        sla
  D:0005H         SYMBOL        suba
  D:0001H         SYMBOL        s
  D:0017H         SYMBOL        no
  -------         DO            
  D:0005H         SYMBOL        i
  -------         ENDDO         
  C:023EH         LINE#         278
  C:0240H         LINE#         279
  C:0240H         LINE#         282
  C:0243H         LINE#         283
  C:0246H         LINE#         284
  C:0249H         LINE#         285
  C:024BH         LINE#         286
  C:024BH         LINE#         287
  C:0250H         LINE#         288
  C:0253H         LINE#         289
  C:0255H         LINE#         290
  C:0255H         LINE#         292
  C:0258H         LINE#         293
  C:025EH         LINE#         294
  C:0261H         LINE#         295
  C:0263H         LINE#         296
  C:0263H         LINE#         297
  C:026EH         LINE#         298
  C:0275H         LINE#         299
  C:0278H         LINE#         300
  C:027FH         LINE#         301
  C:0282H         LINE#         302
  C:0289H         LINE#         303
  C:028CH         LINE#         304
  C:028FH         LINE#         305
  C:0290H         LINE#         306
  -------         ENDPROC       _IRCVSTR
  -------         PROC          INITUART
  C:03D2H         LINE#         309
  C:03D2H         LINE#         310
  C:03D2H         LINE#         311
  C:03D5H         LINE#         312
  C:03D8H         LINE#         313
  C:03DBH         LINE#         314
  C:03DDH         LINE#         315
BL51 BANKED LINKER/LOCATER V5.03                                                      03/14/2013  21:13:14  PAGE 8


  C:03DFH         LINE#         317
  -------         ENDPROC       INITUART
  -------         PROC          INITUART1
  C:038DH         LINE#         320
  C:038DH         LINE#         321
  C:038DH         LINE#         322
  C:0390H         LINE#         323
  C:0392H         LINE#         324
  C:0395H         LINE#         325
  C:0398H         LINE#         326
  C:039AH         LINE#         327
  C:039CH         LINE#         328
  C:039EH         LINE#         329
  -------         ENDPROC       INITUART1
  -------         PROC          UART_SER
  -------         DO            
  D:0004H         SYMBOL        i
  D:0008H         SYMBOL        j
  D:0009H         SYMBOL        it
  -------         ENDDO         
  C:003EH         LINE#         332
  C:0059H         LINE#         339
  C:005FH         LINE#         341
  C:005FH         LINE#         343
  C:0061H         LINE#         344
  C:0064H         LINE#         345
  C:0067H         LINE#         346
  C:006DH         LINE#         348
  C:006FH         LINE#         349
  C:0071H         LINE#         350
  C:0082H         LINE#         351
  C:0087H         LINE#         352
  C:008BH         LINE#         353
  C:0094H         LINE#         355
  C:0096H         LINE#         356
  C:009DH         LINE#         357
  C:00A0H         LINE#         359
  C:00A0H         LINE#         360
  C:00A2H         LINE#         361
  C:00A6H         LINE#         362
  C:00A6H         LINE#         365
  C:00AFH         LINE#         366
  C:00B1H         LINE#         367
  C:00B3H         LINE#         368
  C:00B7H         LINE#         369
  C:00BAH         LINE#         371
  C:00BAH         LINE#         374
  C:00C0H         LINE#         376
  C:00C6H         LINE#         377
  C:00CEH         LINE#         378
  C:00CEH         LINE#         379
  C:00D0H         LINE#         381
  C:00D9H         LINE#         383
  C:00DAH         LINE#         384
  C:00E1H         LINE#         385
  C:00E4H         LINE#         387
  C:00E4H         LINE#         388
BL51 BANKED LINKER/LOCATER V5.03                                                      03/14/2013  21:13:14  PAGE 9


  C:00E6H         LINE#         389
  C:00EDH         LINE#         390
  C:00EDH         LINE#         392
  C:00EDH         LINE#         394
  C:00F4H         LINE#         395
  C:00F6H         LINE#         396
  C:00FCH         LINE#         398
  C:010EH         LINE#         399
  C:0113H         LINE#         401
  C:0124H         LINE#         403
  C:0126H         LINE#         404
  C:0134H         LINE#         405
  C:013CH         LINE#         406
  C:013CH         LINE#         407
  C:0140H         LINE#         409
  C:0142H         LINE#         410
  C:0148H         LINE#         411
  C:014EH         LINE#         412
  C:0152H         LINE#         414
  C:0154H         LINE#         415
  C:0159H         LINE#         416
  C:015CH         LINE#         417
  C:015EH         LINE#         418
  C:0163H         LINE#         419
  C:0166H         LINE#         420
  C:0166H         LINE#         421
  C:0166H         LINE#         422
  C:0166H         LINE#         425
  C:0171H         LINE#         427
  C:0173H         LINE#         428
  C:017AH         LINE#         429
  C:017DH         LINE#         431
  C:017DH         LINE#         432
  C:017FH         LINE#         433
  C:0183H         LINE#         434
  C:0183H         LINE#         435
  -------         ENDPROC       UART_SER
  -------         PROC          MAIN
  -------         DO            
  D:0010H         SYMBOL        i
  D:0011H         SYMBOL        j
  D:0007H         SYMBOL        k
  -------         ENDDO         
  C:019CH         LINE#         440
  C:019CH         LINE#         441
  C:019CH         LINE#         446
  C:019EH         LINE#         447
  C:01A1H         LINE#         448
  C:01A3H         LINE#         449
  C:01A7H         LINE#         450
  C:01ACH         LINE#         452
  C:01AFH         LINE#         454
  C:01B2H         LINE#         455
  C:01B5H         LINE#         456
  C:01B7H         LINE#         458
  C:01BAH         LINE#         459
  C:01BAH         LINE#         461
BL51 BANKED LINKER/LOCATER V5.03                                                      03/14/2013  21:13:14  PAGE 10


  C:01BCH         LINE#         462
  C:01BCH         LINE#         464
  C:01BCH         LINE#         466
  C:01BFH         LINE#         468
  C:01C4H         LINE#         471
  C:01C7H         LINE#         473
  C:01C9H         LINE#         474
  C:01CCH         LINE#         475
  C:01D2H         LINE#         476
  C:01D4H         LINE#         479
  C:01D7H         LINE#         480
  C:01EAH         LINE#         481
  C:01ECH         LINE#         482
  C:01F1H         LINE#         483
  C:01F4H         LINE#         484
  C:01F6H         LINE#         485
  C:01FBH         LINE#         486
  C:01FEH         LINE#         487
  C:01FEH         LINE#         488
  C:01FEH         LINE#         490
  C:0200H         LINE#         491
  C:0202H         LINE#         492
  C:0209H         LINE#         493
  C:020FH         LINE#         494
  C:0211H         LINE#         495
  C:0215H         LINE#         496
  C:021EH         LINE#         497
  C:0227H         LINE#         498
  C:0227H         LINE#         500
  C:0227H         LINE#         501
  C:022DH         LINE#         502
  C:0230H         LINE#         503
  C:0232H         LINE#         504
  C:0235H         LINE#         505
  C:0235H         LINE#         506
  -------         ENDPROC       MAIN
  -------         ENDMOD        MAIN

  -------         MODULE        ?C?CLDPTR
  C:033EH         PUBLIC        ?C?CLDPTR
  -------         ENDMOD        ?C?CLDPTR

  -------         MODULE        ?C?CSTPTR
  C:0357H         PUBLIC        ?C?CSTPTR
  -------         ENDMOD        ?C?CSTPTR

*** WARNING L15: MULTIPLE CALL TO SEGMENT
    SEGMENT: ?PR?_IRCVSTR?MAIN
    CALLER1: ?PR?UART_SER?MAIN
    CALLER2: ?C_C51STARTUP

Program Size: data=70.2 xdata=0 code=997
LINK/LOCATE RUN COMPLETE.  1 WARNING(S),  0 ERROR(S)
