BL51 BANKED LINKER/LOCATER V5.03                                                        03/14/2013  21:20:28  PAGE 1


BL51 BANKED LINKER/LOCATER V5.03, INVOKED BY:
C:\KEIL\C51\BIN\BL51.EXE main.obj TO TestControler RAMSIZE (256)


MEMORY MODEL: SMALL


INPUT MODULES INCLUDED:
  main.obj (MAIN)
  C:\KEIL\C51\LIB\C51S.LIB (?C_STARTUP)
  C:\KEIL\C51\LIB\C51S.LIB (?C_INIT)


LINK MAP OF MODULE:  TestControler (MAIN)


            TYPE    BASE      LENGTH    RELOCATION   SEGMENT NAME
            -----------------------------------------------------

            * * * * * * *   D A T A   M E M O R Y   * * * * * * *
            REG     0000H     0008H     ABSOLUTE     "REG BANK 0"
            DATA    0008H     0002H     UNIT         ?DT?MAIN
                    000AH     0016H                  *** GAP ***
            BIT     0020H.0   0000H.2   UNIT         ?BI?MAIN
                    0020H.2   0000H.6                *** GAP ***
            IDATA   0021H     0001H     UNIT         ?STACK

            * * * * * * *  X D A T A   M E M O R Y  * * * * * * *
                    0000H     0100H                  *** GAP ***
            XDATA   0100H     0020H     ABSOLUTE     
            XDATA   0120H     0020H     ABSOLUTE     
            XDATA   0140H     0020H     ABSOLUTE     
            XDATA   0160H     0020H     ABSOLUTE     

            * * * * * * *   C O D E   M E M O R Y   * * * * * * *
            CODE    0000H     0003H     ABSOLUTE     
                    0003H     0008H                  *** GAP ***
            CODE    000BH     0003H     ABSOLUTE     
            CODE    000EH     0012H     UNIT         ?PR?INITUART?MAIN
                    0020H     0003H                  *** GAP ***
            CODE    0023H     0003H     ABSOLUTE     
            CODE    0026H     000EH     UNIT         ?PR?INIT_TIMER0?MAIN
                    0034H     0007H                  *** GAP ***
            CODE    003BH     0003H     ABSOLUTE     
            CODE    003EH     00A5H     UNIT         ?PR?UART_SER?MAIN
            CODE    00E3H     008CH     UNIT         ?C_C51STARTUP
            CODE    016FH     0016H     UNIT         ?PR?MAIN?MAIN
            CODE    0185H     000BH     UNIT         ?C_INITSEG
            CODE    0190H     0009H     UNIT         ?PR?TIMER0_ISR?MAIN



OVERLAY MAP OF MODULE:   TestControler (MAIN)


SEGMENT
  +--> CALLED SEGMENT
---------------------
BL51 BANKED LINKER/LOCATER V5.03                                                      03/14/2013  21:20:28  PAGE 2


?C_C51STARTUP
  +--> ?PR?MAIN?MAIN
  +--> ?C_INITSEG

?PR?MAIN?MAIN
  +--> ?PR?INITUART?MAIN
  +--> ?PR?INIT_TIMER0?MAIN



SYMBOL TABLE OF MODULE:  TestControler (MAIN)

  VALUE           TYPE          NAME
  ----------------------------------

  -------         MODULE        MAIN
  C:0000H         SYMBOL        _ICE_DUMMY_
  D:0080H         PUBLIC        P0
  C:003BH         PUBLIC        reserve
  D:0090H         PUBLIC        P1
  D:00B0H         PUBLIC        P3
  B:00A8H.7       PUBLIC        EA
  C:003EH         PUBLIC        UART_SER
  D:00A8H         PUBLIC        IE
  B:00A8H.4       PUBLIC        ES
  D:00B8H         PUBLIC        IP
  B:0098H.0       PUBLIC        RI
  B:0098H.1       PUBLIC        TI
  C:016FH         PUBLIC        main
  C:0026H         PUBLIC        Init_Timer0
  B:0020H.0       SYMBOL        g_bTimerFlag
  B:0020H.1       SYMBOL        g_bAddrMode
  D:0099H         PUBLIC        SBUF
  D:0098H         PUBLIC        SCON
  D:0089H         PUBLIC        TMOD
  D:0088H         PUBLIC        TCON
  D:0008H         SYMBOL        m_byCount
  B:00A8H.1       PUBLIC        ET0
  B:00A8H.3       PUBLIC        ET1
  X:0100H         SYMBOL        g_byaByteCode1
  X:0120H         SYMBOL        g_byaByteCode2
  D:008CH         PUBLIC        TH0
  X:0140H         SYMBOL        g_byaByteCode3
  D:008DH         PUBLIC        TH1
  X:0160H         SYMBOL        g_byaByteCode4
  D:008AH         PUBLIC        TL0
  B:0098H.5       PUBLIC        SM2
  C:000EH         PUBLIC        InitUART
  B:0088H.4       PUBLIC        TR0
  B:0088H.6       PUBLIC        TR1
  C:0190H         PUBLIC        Timer0_isr
  D:00C8H         PUBLIC        T2CON
  D:00D0H         PUBLIC        PSW
  D:0009H         SYMBOL        g_by100msCounter
  -------         PROC          INITUART
  C:000EH         LINE#         24
  C:000EH         LINE#         25
BL51 BANKED LINKER/LOCATER V5.03                                                      03/14/2013  21:20:28  PAGE 3


  C:000EH         LINE#         26
  C:0011H         LINE#         27
  C:0014H         LINE#         28
  C:0016H         LINE#         29
  C:0019H         LINE#         30
  C:001BH         LINE#         31
  C:001DH         LINE#         32
  C:001FH         LINE#         33
  -------         ENDPROC       INITUART
  -------         PROC          INIT_TIMER0
  C:0026H         LINE#         35
  C:0026H         LINE#         36
  C:0026H         LINE#         37
  C:0029H         LINE#         38
  C:002BH         LINE#         39
  C:002DH         LINE#         40
  C:002FH         LINE#         41
  C:0031H         LINE#         42
  C:0033H         LINE#         43
  -------         ENDPROC       INIT_TIMER0
  -------         PROC          UART_SER
  -------         DO            
  D:0007H         SYMBOL        bySubAddr
  D:0006H         SYMBOL        it
  -------         ENDDO         
  C:003EH         LINE#         45
  C:004DH         LINE#         47
  C:0052H         LINE#         50
  C:0055H         LINE#         51
  C:0057H         LINE#         52
  C:0057H         LINE#         54
  C:005AH         LINE#         55
  C:005CH         LINE#         56
  C:005EH         LINE#         58
  C:0061H         LINE#         59
  C:0065H         LINE#         60
  C:0067H         LINE#         61
  C:0069H         LINE#         62
  C:006BH         LINE#         64
  C:006BH         LINE#         66
  C:0072H         LINE#         67
  C:007FH         LINE#         68
  C:007FH         LINE#         69
  C:008CH         LINE#         70
  C:0099H         LINE#         71
  C:0099H         LINE#         72
  C:00A6H         LINE#         73
  C:00B3H         LINE#         74
  C:00B3H         LINE#         75
  C:00C0H         LINE#         76
  C:00CDH         LINE#         77
  C:00CDH         LINE#         78
  C:00CFH         LINE#         79
  C:00D4H         LINE#         81
  C:00D6H         LINE#         82
  C:00D6H         LINE#         83
  C:00D6H         LINE#         84
BL51 BANKED LINKER/LOCATER V5.03                                                      03/14/2013  21:20:28  PAGE 4


  -------         ENDPROC       UART_SER
  -------         PROC          TIMER0_ISR
  C:0190H         LINE#         89
  C:0190H         LINE#         91
  C:0193H         LINE#         92
  C:0196H         LINE#         93
  C:0198H         LINE#         94
  -------         ENDPROC       TIMER0_ISR
  -------         PROC          MAIN
  C:016FH         LINE#         99
  C:016FH         LINE#         100
  C:016FH         LINE#         101
  C:0172H         LINE#         102
  C:0175H         LINE#         104
  C:017CH         LINE#         106
  C:017DH         LINE#         107
  C:017FH         LINE#         109
  C:0182H         LINE#         110
  C:0182H         LINE#         112
  C:0183H         LINE#         113
  -------         ENDPROC       MAIN
  -------         ENDMOD        MAIN

Program Size: data=11.2 xdata=128 code=391
LINK/LOCATE RUN COMPLETE.  0 WARNING(S),  0 ERROR(S)
