:0A018500010800C181C100010963F7
:10000E00759890438920D29D758DFDD28ED2AFD238
:02001E00AC2212
:0E002600438901D2AFD2A9D28CC2ABC28E22C6
:0300230002003E9A
:0F003E00C0E0C083C082C0D075D000C006C0072C
:10004D00E5805403FF309902C29930987CC298AE76
:10005D009930010AEE6F7071C201C29D806BE50887
:10006D00C39420500D74002508F582E43401F58306
:10007D00EEF0E508C394204013E5089440500D744C
:10008D00002508F582E43401F583EEF0E508C3940C
:10009D00404013E5089460500D74002508F582E486
:1000AD003401F583EEF0E508C394604013E5089440
:1000BD0080500D74002508F582E43401F583EEF0CF
:0900CD000508E508B48002C2AC8C
:0D00D600D007D006D0D0D082D083D0E03249
:03000B000201905F
:09019000758CFC758A66D2003200
:10016F007580FF12000EE508C3948050030080F6DF
:06017F001200260080FDC5
:030000000200E318
:0C00E300787FE4F6D8FD75812002012A28
:1000EF0002016FE493A3F8E493A34003F68001F2B7
:1000FF0008DFF48029E493A3F85407240CC8C33312
:10010F00C4540F4420C8834004F456800146F6DFE0
:10011F00E4800B0102040810204080900185E47EEA
:10012F00019360BCA3FF543F30E509541FFEE493D5
:10013F00A360010ECF54C025E060A840B8E493A39C
:10014F00FAE493A3F8E493A3C8C582C8CAC583CAC7
:10015F00F0A3C8C582C8CAC583CADFE9DEE780BE7F
:01018F00006F
:00000001FF
